{
  "contractName": "PharmaSupplyChain",
  "abi": [
    {
      "inputs": [
        {
          "internalType": "address",
          "name": "_supplyChainAddress",
          "type": "address"
        }
      ],
      "stateMutability": "nonpayable",
      "type": "constructor"
    },
    {
      "anonymous": false,
      "inputs": [
        {
          "indexed": true,
          "internalType": "address",
          "name": "user",
          "type": "address"
        },
        {
          "indexed": true,
          "internalType": "address",
          "name": "SerialNumber",
          "type": "address"
        }
      ],
      "name": "MovedFromDistributor",
      "type": "event"
    },
    {
      "anonymous": false,
      "inputs": [
        {
          "indexed": true,
          "internalType": "address",
          "name": "user",
          "type": "address"
        },
        {
          "indexed": true,
          "internalType": "address",
          "name": "SerialNumber",
          "type": "address"
        }
      ],
      "name": "MovedFromManufacturer",
      "type": "event"
    },
    {
      "anonymous": false,
      "inputs": [
        {
          "indexed": true,
          "internalType": "address",
          "name": "user",
          "type": "address"
        },
        {
          "indexed": true,
          "internalType": "address",
          "name": "SerialNumber",
          "type": "address"
        }
      ],
      "name": "MovedFromWholesaler",
      "type": "event"
    },
    {
      "anonymous": false,
      "inputs": [
        {
          "indexed": true,
          "internalType": "address",
          "name": "user",
          "type": "address"
        },
        {
          "indexed": true,
          "internalType": "address",
          "name": "SerialNumber",
          "type": "address"
        }
      ],
      "name": "MovedToPharmacy",
      "type": "event"
    },
    {
      "anonymous": false,
      "inputs": [
        {
          "indexed": true,
          "internalType": "address",
          "name": "user",
          "type": "address"
        },
        {
          "indexed": true,
          "internalType": "address",
          "name": "SerialNumber",
          "type": "address"
        }
      ],
      "name": "addDrug",
      "type": "event"
    },
    {
      "inputs": [],
      "name": "x",
      "outputs": [
        {
          "internalType": "string",
          "name": "",
          "type": "string"
        }
      ],
      "stateMutability": "view",
      "type": "function"
    },
    {
      "inputs": [],
      "name": "getUserList",
      "outputs": [
        {
          "internalType": "address[]",
          "name": "UserList",
          "type": "address[]"
        }
      ],
      "stateMutability": "view",
      "type": "function"
    },
    {
      "inputs": [],
      "name": "getDrugList",
      "outputs": [
        {
          "internalType": "address[]",
          "name": "DrugKeyList",
          "type": "address[]"
        }
      ],
      "stateMutability": "view",
      "type": "function"
    },
    {
      "inputs": [
        {
          "internalType": "address",
          "name": "_SerialNumber",
          "type": "address"
        }
      ],
      "name": "getnextOwner",
      "outputs": [
        {
          "internalType": "string",
          "name": "Owner",
          "type": "string"
        }
      ],
      "stateMutability": "view",
      "type": "function"
    },
    {
      "inputs": [
        {
          "internalType": "address",
          "name": "_userAddress",
          "type": "address"
        }
      ],
      "name": "getUserRole",
      "outputs": [
        {
          "internalType": "string",
          "name": "",
          "type": "string"
        }
      ],
      "stateMutability": "view",
      "type": "function"
    },
    {
      "inputs": [
        {
          "internalType": "address",
          "name": "_userAddress",
          "type": "address"
        },
        {
          "internalType": "string",
          "name": "_ParticipantName",
          "type": "string"
        },
        {
          "internalType": "string",
          "name": "_contactNo",
          "type": "string"
        },
        {
          "internalType": "string",
          "name": "_role",
          "type": "string"
        },
        {
          "internalType": "string",
          "name": "_Username",
          "type": "string"
        },
        {
          "internalType": "string",
          "name": "_password",
          "type": "string"
        },
        {
          "internalType": "string",
          "name": "_Email",
          "type": "string"
        },
        {
          "internalType": "bool",
          "name": "_isActive",
          "type": "bool"
        }
      ],
      "name": "addUser",
      "outputs": [
        {
          "internalType": "bool",
          "name": "",
          "type": "bool"
        }
      ],
      "stateMutability": "nonpayable",
      "type": "function"
    },
    {
      "inputs": [
        {
          "internalType": "uint32",
          "name": "_drugID",
          "type": "uint32"
        },
        {
          "internalType": "uint32",
          "name": "_batchID",
          "type": "uint32"
        },
        {
          "internalType": "string",
          "name": "_drugName",
          "type": "string"
        },
        {
          "internalType": "string",
          "name": "_Currentlocation",
          "type": "string"
        },
        {
          "internalType": "uint256",
          "name": "_mfgTimeStamp",
          "type": "uint256"
        },
        {
          "internalType": "uint256",
          "name": "_expTimeStamp",
          "type": "uint256"
        },
        {
          "internalType": "uint32",
          "name": "_CurrentTemperature",
          "type": "uint32"
        },
        {
          "internalType": "uint32",
          "name": "_IdealTemperature",
          "type": "uint32"
        }
      ],
      "name": "addDrugDetails",
      "outputs": [
        {
          "internalType": "address",
          "name": "",
          "type": "address"
        }
      ],
      "stateMutability": "nonpayable",
      "type": "function"
    },
    {
      "inputs": [
        {
          "internalType": "address",
          "name": "_SerialNumber",
          "type": "address"
        },
        {
          "internalType": "string",
          "name": "_name",
          "type": "string"
        },
        {
          "internalType": "string",
          "name": "_ManufacturerAddress",
          "type": "string"
        },
        {
          "internalType": "address",
          "name": "_ExporterAddress",
          "type": "address"
        },
        {
          "internalType": "uint32",
          "name": "_ExportingTemparature",
          "type": "uint32"
        }
      ],
      "name": "MoveFromManufacturer",
      "outputs": [
        {
          "internalType": "bool",
          "name": "",
          "type": "bool"
        }
      ],
      "stateMutability": "nonpayable",
      "type": "function"
    },
    {
      "inputs": [
        {
          "internalType": "address",
          "name": "_SerialNumber",
          "type": "address"
        },
        {
          "internalType": "string",
          "name": "_name",
          "type": "string"
        },
        {
          "internalType": "string",
          "name": "_DistributorAddress",
          "type": "string"
        },
        {
          "internalType": "uint32",
          "name": "_ImportingTemparature",
          "type": "uint32"
        }
      ],
      "name": "receivedToDistributor",
      "outputs": [
        {
          "internalType": "bool",
          "name": "",
          "type": "bool"
        }
      ],
      "stateMutability": "nonpayable",
      "type": "function"
    },
    {
      "inputs": [
        {
          "internalType": "address",
          "name": "_SerialNumber",
          "type": "address"
        },
        {
          "internalType": "uint32",
          "name": "_ExportingTemparature",
          "type": "uint32"
        },
        {
          "internalType": "address",
          "name": "_ExporterAddress",
          "type": "address"
        }
      ],
      "name": "MoveFromDistributor",
      "outputs": [
        {
          "internalType": "bool",
          "name": "",
          "type": "bool"
        }
      ],
      "stateMutability": "nonpayable",
      "type": "function"
    },
    {
      "inputs": [
        {
          "internalType": "address",
          "name": "_SerialNumber",
          "type": "address"
        },
        {
          "internalType": "string",
          "name": "_name",
          "type": "string"
        },
        {
          "internalType": "string",
          "name": "_WholesalerAddress",
          "type": "string"
        },
        {
          "internalType": "uint32",
          "name": "_ImportingTemparature",
          "type": "uint32"
        }
      ],
      "name": "receivedToWholeSaler",
      "outputs": [
        {
          "internalType": "bool",
          "name": "",
          "type": "bool"
        }
      ],
      "stateMutability": "nonpayable",
      "type": "function"
    },
    {
      "inputs": [
        {
          "internalType": "address",
          "name": "_SerialNumber",
          "type": "address"
        },
        {
          "internalType": "uint32",
          "name": "_ExportingTemparature",
          "type": "uint32"
        },
        {
          "internalType": "address",
          "name": "_ExporterAddress",
          "type": "address"
        }
      ],
      "name": "MoveFromWholesaler",
      "outputs": [
        {
          "internalType": "bool",
          "name": "",
          "type": "bool"
        }
      ],
      "stateMutability": "nonpayable",
      "type": "function"
    },
    {
      "inputs": [
        {
          "internalType": "address",
          "name": "_SerialNumber",
          "type": "address"
        },
        {
          "internalType": "string",
          "name": "_PharmacyName",
          "type": "string"
        },
        {
          "internalType": "string",
          "name": "_PharmacyAddress",
          "type": "string"
        },
        {
          "internalType": "uint32",
          "name": "_ImportingTemparature",
          "type": "uint32"
        }
      ],
      "name": "importToPharmacy",
      "outputs": [
        {
          "internalType": "bool",
          "name": "",
          "type": "bool"
        }
      ],
      "stateMutability": "nonpayable",
      "type": "function"
    },
    {
      "inputs": [
        {
          "internalType": "string",
          "name": "_username",
          "type": "string"
        },
        {
          "internalType": "string",
          "name": "_password",
          "type": "string"
        },
        {
          "internalType": "address",
          "name": "_userAddress",
          "type": "address"
        }
      ],
      "name": "Authenticate",
      "outputs": [
        {
          "internalType": "bool",
          "name": "",
          "type": "bool"
        }
      ],
      "stateMutability": "view",
      "type": "function"
    },
    {
      "inputs": [
        {
          "internalType": "address",
          "name": "_userAddress",
          "type": "address"
        }
      ],
      "name": "UserDetails",
      "outputs": [
        {
          "internalType": "string",
          "name": "ParticipantName",
          "type": "string"
        },
        {
          "internalType": "string",
          "name": "contactNo",
          "type": "string"
        },
        {
          "internalType": "bool",
          "name": "isActive",
          "type": "bool"
        },
        {
          "internalType": "string",
          "name": "UserName",
          "type": "string"
        },
        {
          "internalType": "string",
          "name": "password",
          "type": "string"
        },
        {
          "internalType": "string",
          "name": "Email",
          "type": "string"
        }
      ],
      "stateMutability": "view",
      "type": "function"
    },
    {
      "inputs": [
        {
          "internalType": "address",
          "name": "_SerialNumber",
          "type": "address"
        }
      ],
      "name": "ManufacturerDetails",
      "outputs": [
        {
          "internalType": "string",
          "name": "name",
          "type": "string"
        },
        {
          "internalType": "string",
          "name": "ManufacturerAddress",
          "type": "string"
        },
        {
          "internalType": "address",
          "name": "ExporterAddress",
          "type": "address"
        },
        {
          "internalType": "uint32",
          "name": "ExportingTemparature",
          "type": "uint32"
        },
        {
          "internalType": "uint256",
          "name": "ExportingDateTime",
          "type": "uint256"
        },
        {
          "internalType": "string",
          "name": "DrugStatus",
          "type": "string"
        }
      ],
      "stateMutability": "view",
      "type": "function"
    },
    {
      "inputs": [
        {
          "internalType": "address",
          "name": "_SerialNumber",
          "type": "address"
        }
      ],
      "name": "DistributorDetails",
      "outputs": [
        {
          "internalType": "string",
          "name": "name",
          "type": "string"
        },
        {
          "internalType": "string",
          "name": "DistributorAddress",
          "type": "string"
        },
        {
          "internalType": "uint32",
          "name": "ImportingTemparature",
          "type": "uint32"
        },
        {
          "internalType": "uint32",
          "name": "ExportingTemparature",
          "type": "uint32"
        },
        {
          "internalType": "uint256",
          "name": "ImportingDateTime",
          "type": "uint256"
        },
        {
          "internalType": "uint256",
          "name": "ExportingDateTime",
          "type": "uint256"
        },
        {
          "internalType": "address",
          "name": "ExporterAddress",
          "type": "address"
        },
        {
          "internalType": "string",
          "name": "DrugStatus",
          "type": "string"
        }
      ],
      "stateMutability": "view",
      "type": "function"
    },
    {
      "inputs": [
        {
          "internalType": "address",
          "name": "_SerialNumber",
          "type": "address"
        }
      ],
      "name": "WholesalerDetails",
      "outputs": [
        {
          "internalType": "string",
          "name": "name",
          "type": "string"
        },
        {
          "internalType": "string",
          "name": "WholesalerAddress",
          "type": "string"
        },
        {
          "internalType": "uint32",
          "name": "ImportingTemparature",
          "type": "uint32"
        },
        {
          "internalType": "uint32",
          "name": "ExportingTemparature",
          "type": "uint32"
        },
        {
          "internalType": "uint256",
          "name": "ImportingDateTime",
          "type": "uint256"
        },
        {
          "internalType": "uint256",
          "name": "ExportingDateTime",
          "type": "uint256"
        },
        {
          "internalType": "address",
          "name": "ExporterAddress",
          "type": "address"
        },
        {
          "internalType": "string",
          "name": "DrugStatus",
          "type": "string"
        }
      ],
      "stateMutability": "view",
      "type": "function"
    },
    {
      "inputs": [
        {
          "internalType": "address",
          "name": "_SerialNumber",
          "type": "address"
        }
      ],
      "name": "PharmacyDetails",
      "outputs": [
        {
          "internalType": "string",
          "name": "PharmacyName",
          "type": "string"
        },
        {
          "internalType": "string",
          "name": "PharmacyAddress",
          "type": "string"
        },
        {
          "internalType": "uint32",
          "name": "ImportingTemparature",
          "type": "uint32"
        },
        {
          "internalType": "string",
          "name": "DrugStatus",
          "type": "string"
        },
        {
          "internalType": "uint256",
          "name": "ImportingDateTime",
          "type": "uint256"
        }
      ],
      "stateMutability": "view",
      "type": "function"
    },
    {
      "inputs": [
        {
          "internalType": "address",
          "name": "_SerialNumber",
          "type": "address"
        }
      ],
      "name": "getDrugDetails1",
      "outputs": [
        {
          "internalType": "uint32",
          "name": "_drugID",
          "type": "uint32"
        },
        {
          "internalType": "uint32",
          "name": "_batchID",
          "type": "uint32"
        },
        {
          "internalType": "string",
          "name": "_drugName",
          "type": "string"
        },
        {
          "internalType": "string",
          "name": "_Currentlocation",
          "type": "string"
        },
        {
          "internalType": "string",
          "name": "_status",
          "type": "string"
        },
        {
          "internalType": "bool",
          "name": "_isBad",
          "type": "bool"
        }
      ],
      "stateMutability": "view",
      "type": "function"
    },
    {
      "inputs": [
        {
          "internalType": "address",
          "name": "_SerialNumber",
          "type": "address"
        }
      ],
      "name": "getDrugDetails2",
      "outputs": [
        {
          "internalType": "address",
          "name": "_CurrentproductOwner",
          "type": "address"
        },
        {
          "internalType": "uint256",
          "name": "_mfgTimeStamp",
          "type": "uint256"
        },
        {
          "internalType": "uint256",
          "name": "_expTimeStamp",
          "type": "uint256"
        },
        {
          "internalType": "uint32",
          "name": "_CurrentTemperature",
          "type": "uint32"
        },
        {
          "internalType": "uint32",
          "name": "_IdealTemperature",
          "type": "uint32"
        },
        {
          "internalType": "address",
          "name": "_nextOwner",
          "type": "address"
        }
      ],
      "stateMutability": "view",
      "type": "function"
    },
    {
      "inputs": [],
      "name": "test",
      "outputs": [
        {
          "internalType": "string",
          "name": "",
          "type": "string"
        }
      ],
      "stateMutability": "view",
      "type": "function"
    }
  ],
  "bytecode": "0x60806040526040518060400160405280601a81526020017f506861726d61537570706c79436861696e20436f6e74617263740000000000008152506000908051906020019062000051929190620000cd565b503480156200005f57600080fd5b506040516200394c3803806200394c833981810160405262000085919081019062000193565b80600160006101000a81548173ffffffffffffffffffffffffffffffffffffffff021916908373ffffffffffffffffffffffffffffffffffffffff160217905550506200020d565b828054600181600116156101000203166002900490600052602060002090601f016020900481019282601f106200011057805160ff191683800117855562000141565b8280016001018555821562000141579182015b828111156200014057825182559160200191906001019062000123565b5b50905062000150919062000154565b5090565b6200017991905b80821115620001755760008160009055506001016200015b565b5090565b90565b6000815190506200018d81620001f3565b92915050565b600060208284031215620001a657600080fd5b6000620001b6848285016200017c565b91505092915050565b6000620001cc82620001d3565b9050919050565b600073ffffffffffffffffffffffffffffffffffffffff82169050919050565b620001fe81620001bf565b81146200020a57600080fd5b50565b61372f806200021d6000396000f3fe608060405234801561001057600080fd5b50600436106101425760003560e01c80639d420132116100b8578063c51d7bbe1161007c578063c51d7bbe14610432578063d3c6acf914610467578063ebe80aaa14610497578063f2a3b6ae146104c7578063f8a8fd6d146104f7578063fa09b10d1461051557610142565b80639d42013214610362578063aea1cf4f14610392578063b8522043146103c2578063ba469059146103e0578063c35435841461041457610142565b80633f9dcbdc1161010a5780633f9dcbdc1461022a5780634118ad901461025a5780634841e6701461028a57806382c5361c146102c15780638910908a146102f65780638a6f9f881461032d57610142565b80630c55699c1461014757806310e09f5a146101655780631d0c8dbd1461019557806327820851146101c557806337976a74146101f5575b600080fd5b61014f610545565b60405161015c9190613124565b60405180910390f35b61017f600480360361017a919081019061241e565b6105e3565b60405161018c9190613109565b60405180910390f35b6101af60048036036101aa9190810190612325565b6106b3565b6040516101bc9190613146565b60405180910390f35b6101df60048036036101da9190810190612325565b61076f565b6040516101ec9190613146565b60405180910390f35b61020f600480360361020a9190810190612325565b610828565b604051610221969594939291906133a2565b60405180910390f35b610244600480360361023f9190810190612560565b6108f7565b6040516102519190613109565b60405180910390f35b610274600480360361026f919081019061267c565b6109b6565b6040516102819190613109565b60405180910390f35b6102a4600480360361029f9190810190612325565b610d19565b6040516102b898979695949392919061330f565b60405180910390f35b6102db60048036036102d69190810190612325565b610dfa565b6040516102ed969594939291906131ad565b60405180910390f35b610310600480360361030b9190810190612325565b610ed2565b60405161032498979695949392919061330f565b60405180910390f35b61034760048036036103429190810190612325565b610fb3565b6040516103599695949392919061304f565b60405180910390f35b61037c60048036036103779190810190612776565b61107c565b6040516103899190613109565b60405180910390f35b6103ac60048036036103a79190810190612377565b611136565b6040516103b99190613109565b60405180910390f35b6103ca61149f565b6040516103d791906130e7565b60405180910390f35b6103fa60048036036103f59190810190612325565b61154b565b60405161040b9594939291906132a7565b60405180910390f35b61041c611620565b60405161042991906130e7565b60405180910390f35b61044c60048036036104479190810190612325565b6116cc565b60405161045e96959493929190613223565b60405180910390f35b610481600480360361047c919081019061267c565b6117aa565b60405161048e9190613109565b60405180910390f35b6104b160048036036104ac9190810190612c51565b611b0d565b6040516104be9190612ebd565b60405180910390f35b6104e160048036036104dc9190810190612560565b611c37565b6040516104ee9190613109565b60405180910390f35b6104ff611f9d565b60405161050c9190613146565b60405180910390f35b61052f600480360361052a9190810190612560565b61203f565b60405161053c9190613109565b60405180910390f35b60008054600181600116156101000203166002900480601f0160208091040260200160405190810160405280929190818152602001828054600181600116156101000203166002900480156105db5780601f106105b0576101008083540402835291602001916105db565b820191906000526020600020905b8154815290600101906020018083116105be57829003601f168201915b505050505081565b600080600160009054906101000a900473ffffffffffffffffffffffffffffffffffffffff1673ffffffffffffffffffffffffffffffffffffffff16638348a9308b8b8b8b8b8b8b8b6040518963ffffffff1660e01b815260040161064f989796959493929190612f54565b602060405180830381600087803b15801561066957600080fd5b505af115801561067d573d6000803e3d6000fd5b505050506040513d601f19601f820116820180604052506106a1919081019061270c565b90508091505098975050505050505050565b6060600160009054906101000a900473ffffffffffffffffffffffffffffffffffffffff1673ffffffffffffffffffffffffffffffffffffffff16631d0c8dbd836040518263ffffffff1660e01b81526004016107109190612ebd565b60006040518083038186803b15801561072857600080fd5b505afa15801561073c573d6000803e3d6000fd5b505050506040513d6000823e3d601f19601f820116820180604052506107659190810190612735565b9050809050919050565b6060600160009054906101000a900473ffffffffffffffffffffffffffffffffffffffff1673ffffffffffffffffffffffffffffffffffffffff166327820851836040518263ffffffff1660e01b81526004016107cc9190612ebd565b60006040518083038186803b1580156107e457600080fd5b505afa1580156107f8573d6000803e3d6000fd5b505050506040513d6000823e3d601f19601f820116820180604052506108219190810190612735565b9050919050565b60008060608060606000600160009054906101000a900473ffffffffffffffffffffffffffffffffffffffff1673ffffffffffffffffffffffffffffffffffffffff166337976a74886040518263ffffffff1660e01b815260040161088d9190612ebd565b60006040518083038186803b1580156108a557600080fd5b505afa1580156108b9573d6000803e3d6000fd5b505050506040513d6000823e3d601f19601f820116820180604052506108e29190810190612b80565b95509550955095509550955091939550919395565b6000600160009054906101000a900473ffffffffffffffffffffffffffffffffffffffff1673ffffffffffffffffffffffffffffffffffffffff1663f4d84121868686866040518563ffffffff1660e01b815260040161095a9493929190612ffc565b602060405180830381600087803b15801561097457600080fd5b505af1158015610988573d6000803e3d6000fd5b505050506040513d601f19601f820116820180604052506109ac919081019061270c565b9050949350505050565b6000836040518060400160405280600b81526020017f4469737472696275746f7200000000000000000000000000000000000000000081525080604051602001610a009190612ea6565b60405160208183030381529060405280519060200120600160009054906101000a900473ffffffffffffffffffffffffffffffffffffffff1673ffffffffffffffffffffffffffffffffffffffff166327820851336040518263ffffffff1660e01b8152600401610a719190612ed8565b60006040518083038186803b158015610a8957600080fd5b505afa158015610a9d573d6000803e3d6000fd5b505050506040513d6000823e3d601f19601f82011682018060405250610ac69190810190612735565b604051602001610ad69190612ea6565b6040516020818303038152906040528051906020012014610af657600080fd5b80604051602001610b079190612ea6565b60405160208183030381529060405280519060200120600160009054906101000a900473ffffffffffffffffffffffffffffffffffffffff1673ffffffffffffffffffffffffffffffffffffffff16631d0c8dbd846040518263ffffffff1660e01b8152600401610b789190612ebd565b60006040518083038186803b158015610b9057600080fd5b505afa158015610ba4573d6000803e3d6000fd5b505050506040513d6000823e3d601f19601f82011682018060405250610bcd9190810190612735565b604051602001610bdd9190612ea6565b6040516020818303038152906040528051906020012014610bfd57600080fd5b6000600160009054906101000a900473ffffffffffffffffffffffffffffffffffffffff1673ffffffffffffffffffffffffffffffffffffffff16634118ad908888886040518463ffffffff1660e01b8152600401610c5e939291906130b0565b602060405180830381600087803b158015610c7857600080fd5b505af1158015610c8c573d6000803e3d6000fd5b505050506040513d601f19601f82011682018060405250610cb0919081019061270c565b90508673ffffffffffffffffffffffffffffffffffffffff163373ffffffffffffffffffffffffffffffffffffffff167f2bdb4deb19637cbbc606946bafa444e66eabac5a2ab0e587d41049937a85425a60405160405180910390a38093505050509392505050565b60608060008060008060006060600160009054906101000a900473ffffffffffffffffffffffffffffffffffffffff1673ffffffffffffffffffffffffffffffffffffffff1663599fe9318a6040518263ffffffff1660e01b8152600401610d819190612ebd565b60006040518083038186803b158015610d9957600080fd5b505afa158015610dad573d6000803e3d6000fd5b505050506040513d6000823e3d601f19601f82011682018060405250610dd69190810190612a86565b87975086965080905097509750975097509750975097509750919395975091939597565b60608060008060006060600160009054906101000a900473ffffffffffffffffffffffffffffffffffffffff1673ffffffffffffffffffffffffffffffffffffffff1663cb44685f886040518263ffffffff1660e01b8152600401610e5f9190612ebd565b60006040518083038186803b158015610e7757600080fd5b505afa158015610e8b573d6000803e3d6000fd5b505050506040513d6000823e3d601f19601f82011682018060405250610eb491908101906127f5565b85955084945080905095509550955095509550955091939550919395565b60608060008060008060006060600160009054906101000a900473ffffffffffffffffffffffffffffffffffffffff1673ffffffffffffffffffffffffffffffffffffffff16637080f2eb8a6040518263ffffffff1660e01b8152600401610f3a9190612ebd565b60006040518083038186803b158015610f5257600080fd5b505afa158015610f66573d6000803e3d6000fd5b505050506040513d6000823e3d601f19601f82011682018060405250610f8f9190810190612a86565b87975086965080905097509750975097509750975097509750919395975091939597565b600080600080600080600160009054906101000a900473ffffffffffffffffffffffffffffffffffffffff1673ffffffffffffffffffffffffffffffffffffffff16638a6f9f88886040518263ffffffff1660e01b81526004016110179190612ebd565b60c06040518083038186803b15801561102f57600080fd5b505afa158015611043573d6000803e3d6000fd5b505050506040513d601f19601f8201168201806040525061106791908101906125f3565b95509550955095509550955091939550919395565b6000600160009054906101000a900473ffffffffffffffffffffffffffffffffffffffff1673ffffffffffffffffffffffffffffffffffffffff16639d4201328585856040518463ffffffff1660e01b81526004016110dd93929190613168565b60206040518083038186803b1580156110f557600080fd5b505afa158015611109573d6000803e3d6000fd5b505050506040513d601f19601f8201168201806040525061112d919081019061270c565b90509392505050565b6000856040518060400160405280600c81526020017f4d616e7566616374757265720000000000000000000000000000000000000000815250806040516020016111809190612ea6565b60405160208183030381529060405280519060200120600160009054906101000a900473ffffffffffffffffffffffffffffffffffffffff1673ffffffffffffffffffffffffffffffffffffffff166327820851336040518263ffffffff1660e01b81526004016111f19190612ed8565b60006040518083038186803b15801561120957600080fd5b505afa15801561121d573d6000803e3d6000fd5b505050506040513d6000823e3d601f19601f820116820180604052506112469190810190612735565b6040516020016112569190612ea6565b604051602081830303815290604052805190602001201461127657600080fd5b806040516020016112879190612ea6565b60405160208183030381529060405280519060200120600160009054906101000a900473ffffffffffffffffffffffffffffffffffffffff1673ffffffffffffffffffffffffffffffffffffffff16631d0c8dbd846040518263ffffffff1660e01b81526004016112f89190612ebd565b60006040518083038186803b15801561131057600080fd5b505afa158015611324573d6000803e3d6000fd5b505050506040513d6000823e3d601f19601f8201168201806040525061134d9190810190612735565b60405160200161135d9190612ea6565b604051602081830303815290604052805190602001201461137d57600080fd5b6000600160009054906101000a900473ffffffffffffffffffffffffffffffffffffffff1673ffffffffffffffffffffffffffffffffffffffff1663aea1cf4f8a8a8a8a8a6040518663ffffffff1660e01b81526004016113e2959493929190612ef3565b602060405180830381600087803b1580156113fc57600080fd5b505af1158015611410573d6000803e3d6000fd5b505050506040513d601f19601f82011682018060405250611434919081019061270c565b90508873ffffffffffffffffffffffffffffffffffffffff163373ffffffffffffffffffffffffffffffffffffffff167f427d46cc5af6b6f17b1b2a581e0c4811699794edddc44508144c3d38d08ad84560405160405180910390a380935050505095945050505050565b6060600160009054906101000a900473ffffffffffffffffffffffffffffffffffffffff1673ffffffffffffffffffffffffffffffffffffffff16631805fc7a6040518163ffffffff1660e01b815260040160006040518083038186803b15801561150957600080fd5b505afa15801561151d573d6000803e3d6000fd5b505050506040513d6000823e3d601f19601f8201168201806040525061154691908101906126cb565b905090565b606080600060606000600160009054906101000a900473ffffffffffffffffffffffffffffffffffffffff1673ffffffffffffffffffffffffffffffffffffffff166373b65114876040518263ffffffff1660e01b81526004016115af9190612ebd565b60006040518083038186803b1580156115c757600080fd5b505afa1580156115db573d6000803e3d6000fd5b505050506040513d6000823e3d601f19601f8201168201806040525061160491908101906129c7565b8494508393508191509450945094509450945091939590929450565b6060600160009054906101000a900473ffffffffffffffffffffffffffffffffffffffff1673ffffffffffffffffffffffffffffffffffffffff166308094b676040518163ffffffff1660e01b815260040160006040518083038186803b15801561168a57600080fd5b505afa15801561169e573d6000803e3d6000fd5b505050506040513d6000823e3d601f19601f820116820180604052506116c791908101906126cb565b905090565b60608060006060806060600160009054906101000a900473ffffffffffffffffffffffffffffffffffffffff1673ffffffffffffffffffffffffffffffffffffffff16638f160233886040518263ffffffff1660e01b81526004016117319190612ebd565b60006040518083038186803b15801561174957600080fd5b505afa15801561175d573d6000803e3d6000fd5b505050506040513d6000823e3d601f19601f8201168201806040525061178691908101906128c6565b85955084945082925081915080905095509550955095509550955091939550919395565b6000836040518060400160405280600a81526020017f57686f6c6573616c657200000000000000000000000000000000000000000000815250806040516020016117f49190612ea6565b60405160208183030381529060405280519060200120600160009054906101000a900473ffffffffffffffffffffffffffffffffffffffff1673ffffffffffffffffffffffffffffffffffffffff166327820851336040518263ffffffff1660e01b81526004016118659190612ed8565b60006040518083038186803b15801561187d57600080fd5b505afa158015611891573d6000803e3d6000fd5b505050506040513d6000823e3d601f19601f820116820180604052506118ba9190810190612735565b6040516020016118ca9190612ea6565b60405160208183030381529060405280519060200120146118ea57600080fd5b806040516020016118fb9190612ea6565b60405160208183030381529060405280519060200120600160009054906101000a900473ffffffffffffffffffffffffffffffffffffffff1673ffffffffffffffffffffffffffffffffffffffff16631d0c8dbd846040518263ffffffff1660e01b815260040161196c9190612ebd565b60006040518083038186803b15801561198457600080fd5b505afa158015611998573d6000803e3d6000fd5b505050506040513d6000823e3d601f19601f820116820180604052506119c19190810190612735565b6040516020016119d19190612ea6565b60405160208183030381529060405280519060200120146119f157600080fd5b6000600160009054906101000a900473ffffffffffffffffffffffffffffffffffffffff1673ffffffffffffffffffffffffffffffffffffffff1663f7770b2f8888886040518463ffffffff1660e01b8152600401611a52939291906130b0565b602060405180830381600087803b158015611a6c57600080fd5b505af1158015611a80573d6000803e3d6000fd5b505050506040513d601f19601f82011682018060405250611aa4919081019061270c565b90508673ffffffffffffffffffffffffffffffffffffffff163373ffffffffffffffffffffffffffffffffffffffff167f6b29b2f91c862eb780a8ce16c8b795e23e0f8af47bd7812b9bf904323f65e16d60405160405180910390a38093505050509392505050565b600080600160009054906101000a900473ffffffffffffffffffffffffffffffffffffffff1673ffffffffffffffffffffffffffffffffffffffff1663654032e08b8b8b8b8b8b8b8b6040518963ffffffff1660e01b8152600401611b79989796959493929190613418565b602060405180830381600087803b158015611b9357600080fd5b505af1158015611ba7573d6000803e3d6000fd5b505050506040513d601f19601f82011682018060405250611bcb919081019061234e565b90508073ffffffffffffffffffffffffffffffffffffffff163373ffffffffffffffffffffffffffffffffffffffff167f805f25da3bcf5e3c9a394b91b548e1e24ee1d24d35270eecd6078fa903fdb43d60405160405180910390a38091505098975050505050505050565b6000846040518060400160405280600881526020017f506861726d61637900000000000000000000000000000000000000000000000081525080604051602001611c819190612ea6565b60405160208183030381529060405280519060200120600160009054906101000a900473ffffffffffffffffffffffffffffffffffffffff1673ffffffffffffffffffffffffffffffffffffffff166327820851336040518263ffffffff1660e01b8152600401611cf29190612ed8565b60006040518083038186803b158015611d0a57600080fd5b505afa158015611d1e573d6000803e3d6000fd5b505050506040513d6000823e3d601f19601f82011682018060405250611d479190810190612735565b604051602001611d579190612ea6565b6040516020818303038152906040528051906020012014611d7757600080fd5b80604051602001611d889190612ea6565b60405160208183030381529060405280519060200120600160009054906101000a900473ffffffffffffffffffffffffffffffffffffffff1673ffffffffffffffffffffffffffffffffffffffff16631d0c8dbd846040518263ffffffff1660e01b8152600401611df99190612ebd565b60006040518083038186803b158015611e1157600080fd5b505afa158015611e25573d6000803e3d6000fd5b505050506040513d6000823e3d601f19601f82011682018060405250611e4e9190810190612735565b604051602001611e5e9190612ea6565b6040516020818303038152906040528051906020012014611e7e57600080fd5b6000600160009054906101000a900473ffffffffffffffffffffffffffffffffffffffff1673ffffffffffffffffffffffffffffffffffffffff1663f2a3b6ae898989896040518563ffffffff1660e01b8152600401611ee19493929190612ffc565b602060405180830381600087803b158015611efb57600080fd5b505af1158015611f0f573d6000803e3d6000fd5b505050506040513d601f19601f82011682018060405250611f33919081019061270c565b90508773ffffffffffffffffffffffffffffffffffffffff163373ffffffffffffffffffffffffffffffffffffffff167fd2961def4517b688d3ced7d55ffc8368964581f74f71260f19c8db925660b2f760405160405180910390a3809350505050949350505050565b606060008054600181600116156101000203166002900480601f0160208091040260200160405190810160405280929190818152602001828054600181600116156101000203166002900480156120355780601f1061200a57610100808354040283529160200191612035565b820191906000526020600020905b81548152906001019060200180831161201857829003601f168201915b5050505050905090565b6000600160009054906101000a900473ffffffffffffffffffffffffffffffffffffffff1673ffffffffffffffffffffffffffffffffffffffff166372d80681868686866040518563ffffffff1660e01b81526004016120a29493929190612ffc565b602060405180830381600087803b1580156120bc57600080fd5b505af11580156120d0573d6000803e3d6000fd5b505050506040513d601f19601f820116820180604052506120f4919081019061270c565b9050949350505050565b60008135905061210d8161369d565b92915050565b6000815190506121228161369d565b92915050565b600082601f83011261213957600080fd5b815161214c612147826134d1565b6134a4565b9150818183526020840193506020810190508385602084028201111561217157600080fd5b60005b838110156121a157816121878882612113565b845260208401935060208301925050600181019050612174565b5050505092915050565b6000813590506121ba816136b4565b92915050565b6000815190506121cf816136b4565b92915050565b600082601f8301126121e657600080fd5b81516121f96121f4826134f9565b6134a4565b9150808252602083016020830185838301111561221557600080fd5b612220838284613659565b50505092915050565b600082601f83011261223a57600080fd5b813561224d61224882613525565b6134a4565b9150808252602083016020830185838301111561226957600080fd5b61227483828461364a565b50505092915050565b600082601f83011261228e57600080fd5b81516122a161229c82613525565b6134a4565b915080825260208301602083018583830111156122bd57600080fd5b6122c8838284613659565b50505092915050565b6000813590506122e0816136cb565b92915050565b6000815190506122f5816136cb565b92915050565b60008135905061230a816136e2565b92915050565b60008151905061231f816136e2565b92915050565b60006020828403121561233757600080fd5b6000612345848285016120fe565b91505092915050565b60006020828403121561236057600080fd5b600061236e84828501612113565b91505092915050565b600080600080600060a0868803121561238f57600080fd5b600061239d888289016120fe565b955050602086013567ffffffffffffffff8111156123ba57600080fd5b6123c688828901612229565b945050604086013567ffffffffffffffff8111156123e357600080fd5b6123ef88828901612229565b9350506060612400888289016120fe565b9250506080612411888289016122fb565b9150509295509295909350565b600080600080600080600080610100898b03121561243b57600080fd5b60006124498b828c016120fe565b985050602089013567ffffffffffffffff81111561246657600080fd5b6124728b828c01612229565b975050604089013567ffffffffffffffff81111561248f57600080fd5b61249b8b828c01612229565b965050606089013567ffffffffffffffff8111156124b857600080fd5b6124c48b828c01612229565b955050608089013567ffffffffffffffff8111156124e157600080fd5b6124ed8b828c01612229565b94505060a089013567ffffffffffffffff81111561250a57600080fd5b6125168b828c01612229565b93505060c089013567ffffffffffffffff81111561253357600080fd5b61253f8b828c01612229565b92505060e06125508b828c016121ab565b9150509295985092959890939650565b6000806000806080858703121561257657600080fd5b6000612584878288016120fe565b945050602085013567ffffffffffffffff8111156125a157600080fd5b6125ad87828801612229565b935050604085013567ffffffffffffffff8111156125ca57600080fd5b6125d687828801612229565b92505060606125e7878288016122fb565b91505092959194509250565b60008060008060008060c0878903121561260c57600080fd5b600061261a89828a01612113565b965050602061262b89828a016122e6565b955050604061263c89828a016122e6565b945050606061264d89828a01612310565b935050608061265e89828a01612310565b92505060a061266f89828a01612113565b9150509295509295509295565b60008060006060848603121561269157600080fd5b600061269f868287016120fe565b93505060206126b0868287016122fb565b92505060406126c1868287016120fe565b9150509250925092565b6000602082840312156126dd57600080fd5b600082015167ffffffffffffffff8111156126f757600080fd5b61270384828501612128565b91505092915050565b60006020828403121561271e57600080fd5b600061272c848285016121c0565b91505092915050565b60006020828403121561274757600080fd5b600082015167ffffffffffffffff81111561276157600080fd5b61276d8482850161227d565b91505092915050565b60008060006060848603121561278b57600080fd5b600084013567ffffffffffffffff8111156127a557600080fd5b6127b186828701612229565b935050602084013567ffffffffffffffff8111156127ce57600080fd5b6127da86828701612229565b92505060406127eb868287016120fe565b9150509250925092565b60008060008060008060c0878903121561280e57600080fd5b600087015167ffffffffffffffff81111561282857600080fd5b61283489828a016121d5565b965050602087015167ffffffffffffffff81111561285157600080fd5b61285d89828a016121d5565b955050604061286e89828a01612113565b945050606061287f89828a01612310565b935050608061289089828a016122e6565b92505060a087015167ffffffffffffffff8111156128ad57600080fd5b6128b989828a016121d5565b9150509295509295509295565b60008060008060008060c087890312156128df57600080fd5b600087015167ffffffffffffffff8111156128f957600080fd5b61290589828a016121d5565b965050602087015167ffffffffffffffff81111561292257600080fd5b61292e89828a016121d5565b955050604061293f89828a016121c0565b945050606087015167ffffffffffffffff81111561295c57600080fd5b61296889828a016121d5565b935050608087015167ffffffffffffffff81111561298557600080fd5b61299189828a016121d5565b92505060a087015167ffffffffffffffff8111156129ae57600080fd5b6129ba89828a016121d5565b9150509295509295509295565b600080600080600060a086880312156129df57600080fd5b600086015167ffffffffffffffff8111156129f957600080fd5b612a05888289016121d5565b955050602086015167ffffffffffffffff811115612a2257600080fd5b612a2e888289016121d5565b9450506040612a3f88828901612310565b935050606086015167ffffffffffffffff811115612a5c57600080fd5b612a68888289016121d5565b9250506080612a79888289016122e6565b9150509295509295909350565b600080600080600080600080610100898b031215612aa357600080fd5b600089015167ffffffffffffffff811115612abd57600080fd5b612ac98b828c016121d5565b985050602089015167ffffffffffffffff811115612ae657600080fd5b612af28b828c016121d5565b9750506040612b038b828c01612310565b9650506060612b148b828c01612310565b9550506080612b258b828c016122e6565b94505060a0612b368b828c016122e6565b93505060c0612b478b828c01612113565b92505060e089015167ffffffffffffffff811115612b6457600080fd5b612b708b828c016121d5565b9150509295985092959890939650565b60008060008060008060c08789031215612b9957600080fd5b6000612ba789828a01612310565b9650506020612bb889828a01612310565b955050604087015167ffffffffffffffff811115612bd557600080fd5b612be189828a0161227d565b945050606087015167ffffffffffffffff811115612bfe57600080fd5b612c0a89828a0161227d565b935050608087015167ffffffffffffffff811115612c2757600080fd5b612c3389828a0161227d565b92505060a0612c4489828a016121c0565b9150509295509295509295565b600080600080600080600080610100898b031215612c6e57600080fd5b6000612c7c8b828c016122fb565b9850506020612c8d8b828c016122fb565b975050604089013567ffffffffffffffff811115612caa57600080fd5b612cb68b828c01612229565b965050606089013567ffffffffffffffff811115612cd357600080fd5b612cdf8b828c01612229565b9550506080612cf08b828c016122d1565b94505060a0612d018b828c016122d1565b93505060c0612d128b828c016122fb565b92505060e0612d238b828c016122fb565b9150509295985092959890939650565b6000612d3f8383612d5a565b60208301905092915050565b612d5481613614565b82525050565b612d63816135bc565b82525050565b612d72816135bc565b82525050565b6000612d8382613561565b612d8d818561358f565b9350612d9883613551565b8060005b83811015612dc9578151612db08882612d33565b9750612dbb83613582565b925050600181019050612d9c565b5085935050505092915050565b612ddf816135ce565b82525050565b6000612df082613577565b612dfa81856135a0565b9350612e0a818560208601613659565b612e138161368c565b840191505092915050565b6000612e2982613577565b612e3381856135b1565b9350612e43818560208601613659565b80840191505092915050565b6000612e5a8261356c565b612e6481856135a0565b9350612e74818560208601613659565b612e7d8161368c565b840191505092915050565b612e91816135fa565b82525050565b612ea081613604565b82525050565b6000612eb28284612e1e565b915081905092915050565b6000602082019050612ed26000830184612d69565b92915050565b6000602082019050612eed6000830184612d4b565b92915050565b600060a082019050612f086000830188612d69565b8181036020830152612f1a8187612de5565b90508181036040830152612f2e8186612de5565b9050612f3d6060830185612d69565b612f4a6080830184612e97565b9695505050505050565b600061010082019050612f6a600083018b612d69565b8181036020830152612f7c818a612de5565b90508181036040830152612f908189612de5565b90508181036060830152612fa48188612de5565b90508181036080830152612fb88187612de5565b905081810360a0830152612fcc8186612de5565b905081810360c0830152612fe08185612de5565b9050612fef60e0830184612dd6565b9998505050505050505050565b60006080820190506130116000830187612d69565b81810360208301526130238186612de5565b905081810360408301526130378185612de5565b90506130466060830184612e97565b95945050505050565b600060c0820190506130646000830189612d69565b6130716020830188612e88565b61307e6040830187612e88565b61308b6060830186612e97565b6130986080830185612e97565b6130a560a0830184612d69565b979650505050505050565b60006060820190506130c56000830186612d69565b6130d26020830185612e97565b6130df6040830184612d69565b949350505050565b600060208201905081810360008301526131018184612d78565b905092915050565b600060208201905061311e6000830184612dd6565b92915050565b6000602082019050818103600083015261313e8184612e4f565b905092915050565b600060208201905081810360008301526131608184612de5565b905092915050565b600060608201905081810360008301526131828186612de5565b905081810360208301526131968185612de5565b90506131a56040830184612d69565b949350505050565b600060c08201905081810360008301526131c78189612de5565b905081810360208301526131db8188612de5565b90506131ea6040830187612d69565b6131f76060830186612e97565b6132046080830185612e88565b81810360a08301526132168184612de5565b9050979650505050505050565b600060c082019050818103600083015261323d8189612de5565b905081810360208301526132518188612de5565b90506132606040830187612dd6565b81810360608301526132728186612de5565b905081810360808301526132868185612de5565b905081810360a083015261329a8184612de5565b9050979650505050505050565b600060a08201905081810360008301526132c18188612de5565b905081810360208301526132d58187612de5565b90506132e46040830186612e97565b81810360608301526132f68185612de5565b90506133056080830184612e88565b9695505050505050565b600061010082019050818103600083015261332a818b612de5565b9050818103602083015261333e818a612de5565b905061334d6040830189612e97565b61335a6060830188612e97565b6133676080830187612e88565b61337460a0830186612e88565b61338160c0830185612d69565b81810360e08301526133938184612de5565b90509998505050505050505050565b600060c0820190506133b76000830189612e97565b6133c46020830188612e97565b81810360408301526133d68187612de5565b905081810360608301526133ea8186612de5565b905081810360808301526133fe8185612de5565b905061340d60a0830184612dd6565b979650505050505050565b60006101008201905061342e600083018b612e97565b61343b602083018a612e97565b818103604083015261344d8189612de5565b905081810360608301526134618188612de5565b90506134706080830187612e88565b61347d60a0830186612e88565b61348a60c0830185612e97565b61349760e0830184612e97565b9998505050505050505050565b6000604051905081810181811067ffffffffffffffff821117156134c757600080fd5b8060405250919050565b600067ffffffffffffffff8211156134e857600080fd5b602082029050602081019050919050565b600067ffffffffffffffff82111561351057600080fd5b601f19601f8301169050602081019050919050565b600067ffffffffffffffff82111561353c57600080fd5b601f19601f8301169050602081019050919050565b6000819050602082019050919050565b600081519050919050565b600081519050919050565b600081519050919050565b6000602082019050919050565b600082825260208201905092915050565b600082825260208201905092915050565b600081905092915050565b60006135c7826135da565b9050919050565b60008115159050919050565b600073ffffffffffffffffffffffffffffffffffffffff82169050919050565b6000819050919050565b600063ffffffff82169050919050565b600061361f82613626565b9050919050565b600061363182613638565b9050919050565b6000613643826135da565b9050919050565b82818337600083830152505050565b60005b8381101561367757808201518184015260208101905061365c565b83811115613686576000848401525b50505050565b6000601f19601f8301169050919050565b6136a6816135bc565b81146136b157600080fd5b50565b6136bd816135ce565b81146136c857600080fd5b50565b6136d4816135fa565b81146136df57600080fd5b50565b6136eb81613604565b81146136f657600080fd5b5056fea2646970667358221220fe77aa229cfc26ee6c74ba8b115bc6efa474ec4e844919ea3d7de76e4f0d562064736f6c63430006020033",
  "source": "// SPDX-License-Identifier: UNLICENSED\npragma solidity ^0.6.2;\npragma experimental ABIEncoderV2;\n\nimport \"./StorageSupplyChain.sol\";\n\ncontract PharmaSupplyChain {\nevent addDrug(address indexed user, address indexed SerialNumber);\nevent MovedFromManufacturer(address indexed user, address indexed SerialNumber);\nevent MovedFromDistributor(address indexed user, address indexed SerialNumber);\nevent MovedFromWholesaler(address indexed user, address indexed SerialNumber);\nevent MovedToPharmacy(address indexed user, address indexed SerialNumber);\n\nmodifier isValidPerformer(address _SerialNumber, string memory role) {\n        require(keccak256(abi.encodePacked(supplyChainStorage.getUserRole(msg.sender))) == keccak256(abi.encodePacked(role)));\n        require(keccak256(abi.encodePacked(supplyChainStorage.getnextOwner(_SerialNumber))) == keccak256(abi.encodePacked(role)));\n        _;\n\n   }\n\n\n\nstring public x   = \"PharmaSupplyChain Contarct\";\n\n\n     /* Storage Variables */    \n     SupplyChainStorage supplyChainStorage;\n\n constructor(address _supplyChainAddress) public {\n        supplyChainStorage = SupplyChainStorage(_supplyChainAddress);\n    }\n\n    \n\n   //gets the list of userKeys\n   function getUserList() public view returns(address[] memory UserList)\n   {\n      return supplyChainStorage.getUserKeyList();\n   }\n   //gets the list of DrugKeys\n   function getDrugList() public view returns(address[] memory DrugKeyList){\n      return supplyChainStorage.getDrugKeyList();\n   }\n\n   \n    function getnextOwner(address _SerialNumber) public view returns(string memory Owner)\n    {\n       (Owner) = supplyChainStorage.getnextOwner(_SerialNumber);\n       return (Owner);\n    }\n\n\n      function getUserRole(address _userAddress)public view returns(string memory){\n         return supplyChainStorage.getUserRole(_userAddress);\n      }\n\n    function addUser(address  _userAddress,\n                     string memory _ParticipantName, \n                      string  memory _contactNo, \n                        string memory _role, \n                         string memory _Username,\n                         string memory _password,\n                        string memory _Email,\n                     bool _isActive) public returns(bool){\n\n                       bool result = supplyChainStorage.setUser(_userAddress,_ParticipantName,_contactNo,_role,_Username,_password,_Email,_isActive);\n                       \n                        return result;\n    }\n\n\n   function addDrugDetails(uint32 _drugID,\n        uint32 _batchID,\n        string memory _drugName,\n        string memory _Currentlocation,\n       \n        uint _mfgTimeStamp,\n        uint _expTimeStamp,\n        uint32  _CurrentTemperature,\n        uint32 _IdealTemperature\n     ) public  returns(address){\n         address SerialNumber = supplyChainStorage.setDrugDetails(_drugID,_batchID,_drugName,_Currentlocation,_mfgTimeStamp,_expTimeStamp,_CurrentTemperature,_IdealTemperature);\n          emit addDrug(msg.sender, SerialNumber); \n          return SerialNumber;\n     }\n\n      function MoveFromManufacturer(address _SerialNumber,\n                             string memory _name,\n                             string memory _ManufacturerAddress,\n                             address _ExporterAddress,\n                             uint32  _ExportingTemparature\n                            \n                             )public isValidPerformer(_SerialNumber,'Manufacturer')  returns(bool){\n\n                                bool result =  supplyChainStorage.MoveFromManufacturer(_SerialNumber,_name,_ManufacturerAddress, _ExporterAddress,_ExportingTemparature);\n                                emit MovedFromManufacturer(msg.sender,_SerialNumber);\n                                return result;\n                             }\n\n\n        function receivedToDistributor(address _SerialNumber, string memory _name,string memory _DistributorAddress,uint32 _ImportingTemparature)public  returns(bool){\n               return supplyChainStorage.distributorReceving(_SerialNumber,_name,_DistributorAddress,_ImportingTemparature);\n        }\n\n\nfunction MoveFromDistributor(address _SerialNumber,\n        uint32 _ExportingTemparature,\n       address _ExporterAddress\n        ) public isValidPerformer(_SerialNumber,'Distributor') returns(bool){\n\n             bool result =  supplyChainStorage.MoveFromDistributor(_SerialNumber, _ExportingTemparature,_ExporterAddress);\n                                emit MovedFromDistributor(msg.sender,_SerialNumber);\n                                return result;   \n            }\n\n\n\n        function receivedToWholeSaler(address _SerialNumber, string memory _name,string memory _WholesalerAddress,uint32 _ImportingTemparature)public  returns(bool){\n               return supplyChainStorage.WholeSalerReceving(_SerialNumber,_name,_WholesalerAddress,_ImportingTemparature);\n        }\n\n\nfunction MoveFromWholesaler(address _SerialNumber,\n        uint32 _ExportingTemparature,\n        address _ExporterAddress\n        ) public isValidPerformer(_SerialNumber,'Wholesaler') returns(bool){\n\n             bool result =  supplyChainStorage.moveFromWholesaler(_SerialNumber, _ExportingTemparature,_ExporterAddress);\n                                emit MovedFromWholesaler(msg.sender,_SerialNumber);\n                                return result;   \n            }\n\n\n\nfunction importToPharmacy(address _SerialNumber,\n        string memory _PharmacyName,\n        string memory _PharmacyAddress,\n        uint32 _ImportingTemparature) public isValidPerformer(_SerialNumber,'Pharmacy') returns(bool){\n            bool result = supplyChainStorage.importToPharmacy(_SerialNumber,_PharmacyName,_PharmacyAddress,_ImportingTemparature);\n            emit MovedToPharmacy(msg.sender,_SerialNumber);\n            return result;\n        }\n\n        function Authenticate(string memory _username, string memory _password,address _userAddress)public view returns(bool){\n         return supplyChainStorage.Authenticate(_username,_password,_userAddress);\n        }\n\n\n\n\n        function UserDetails(address _userAddress)public view returns(string memory ParticipantName,\n        string memory contactNo,\n        bool isActive,\n        string memory UserName,\n        string memory password,\n        string memory Email){\n           return supplyChainStorage.BatchUserDetails(_userAddress);\n        }\n      \n\n\n        function ManufacturerDetails(address _SerialNumber)public view returns(string memory name,\n        string memory ManufacturerAddress,\n        address ExporterAddress,\n        uint32 ExportingTemparature,\n        uint256 ExportingDateTime,\n        string memory DrugStatus){\n     return supplyChainStorage.BatchManufactureringDetails(_SerialNumber);\n        }\n\n        function DistributorDetails(address _SerialNumber) public view returns( string memory name,\n        string memory DistributorAddress,\n        uint32 ImportingTemparature,\n        uint32 ExportingTemparature,\n        uint256 ImportingDateTime,\n        uint256 ExportingDateTime,\n        address ExporterAddress,\n        string memory DrugStatus){\n           return supplyChainStorage.BatchdistributorDetails(_SerialNumber);\n        }\n\n        function WholesalerDetails(address _SerialNumber) public view returns(string memory name,\n        string memory WholesalerAddress,\n        uint32 ImportingTemparature,\n        uint32 ExportingTemparature,\n        uint256 ImportingDateTime,\n        uint256 ExportingDateTime,\n       address ExporterAddress,\n        string memory DrugStatus){\n           return supplyChainStorage.BatchWholesalerDetails(_SerialNumber);\n        }\n\n         function PharmacyDetails(address _SerialNumber) public view returns( string memory PharmacyName,\n        string memory PharmacyAddress,\n        uint32 ImportingTemparature,\n        string memory DrugStatus,\n        uint256 ImportingDateTime){\n           return supplyChainStorage.BatchPharmacyDetails(_SerialNumber);\n        }\n         \n\n         function getDrugDetails1(address _SerialNumber) public  view returns(uint32 _drugID,\n        uint32 _batchID,\n        string memory _drugName,\n        string memory _Currentlocation,\n        string memory _status,\n        bool _isBad\n        ){\n      \n      return supplyChainStorage.getDrugDetails1(_SerialNumber);\n\n      }\n\n function getDrugDetails2(address _SerialNumber) public  view returns(address _CurrentproductOwner,\n        uint _mfgTimeStamp,\n        uint _expTimeStamp,\n        uint32  _CurrentTemperature,\n        uint32 _IdealTemperature,\n        address _nextOwner\n        ){\n      \n      return supplyChainStorage.getDrugDetails2(_SerialNumber);\n\n      }\n\n\n\n        function test() public view returns(string memory){\n           return x;\n        }\n\n}\n",
  "sourcePath": "/Users/tejasatyanarayanathotakura/Desktop/Worked Projects/truffleProject/contracts/PharmaSupplyChain.sol",
  "compiler": {
    "name": "solc",
    "version": "0.6.2+commit.bacdbe57.Emscripten.clang"
  },
  "schemaVersion": "3.4.3",
  "updatedAt": "2022-03-14T18:27:00.500Z",
  "devdoc": {
    "methods": {}
  },
  "userdoc": {
    "methods": {}
  }
}