{
  "contractName": "SupplyChainStorage",
  "abi": [
    {
      "inputs": [],
      "stateMutability": "nonpayable",
      "type": "constructor"
    },
    {
      "anonymous": false,
      "inputs": [
        {
          "indexed": false,
          "internalType": "address",
          "name": "caller",
          "type": "address"
        }
      ],
      "name": "AuthorizedCaller",
      "type": "event"
    },
    {
      "anonymous": false,
      "inputs": [
        {
          "indexed": false,
          "internalType": "address",
          "name": "caller",
          "type": "address"
        }
      ],
      "name": "DeAuthorizedCaller",
      "type": "event"
    },
    {
      "inputs": [
        {
          "internalType": "address",
          "name": "",
          "type": "address"
        }
      ],
      "name": "BatchDrugDetails",
      "outputs": [
        {
          "internalType": "uint32",
          "name": "drugID",
          "type": "uint32"
        },
        {
          "internalType": "uint32",
          "name": "batchID",
          "type": "uint32"
        },
        {
          "internalType": "string",
          "name": "drugName",
          "type": "string"
        },
        {
          "internalType": "string",
          "name": "Currentlocation",
          "type": "string"
        },
        {
          "internalType": "address",
          "name": "CurrentproductOwner",
          "type": "address"
        },
        {
          "internalType": "address",
          "name": "nextOwner",
          "type": "address"
        },
        {
          "internalType": "uint256",
          "name": "mfgTimeStamp",
          "type": "uint256"
        },
        {
          "internalType": "uint256",
          "name": "expTimeStamp",
          "type": "uint256"
        },
        {
          "internalType": "uint32",
          "name": "CurrentTemperature",
          "type": "uint32"
        },
        {
          "internalType": "uint32",
          "name": "IdealTemperature",
          "type": "uint32"
        },
        {
          "internalType": "string",
          "name": "status",
          "type": "string"
        },
        {
          "internalType": "bool",
          "name": "isBad",
          "type": "bool"
        }
      ],
      "stateMutability": "view",
      "type": "function"
    },
    {
      "inputs": [
        {
          "internalType": "address",
          "name": "",
          "type": "address"
        }
      ],
      "name": "BatchManufactureringDetails",
      "outputs": [
        {
          "internalType": "string",
          "name": "name",
          "type": "string"
        },
        {
          "internalType": "string",
          "name": "ManufacturerAddress",
          "type": "string"
        },
        {
          "internalType": "address",
          "name": "ExporterAddress",
          "type": "address"
        },
        {
          "internalType": "uint32",
          "name": "ExportingTemparature",
          "type": "uint32"
        },
        {
          "internalType": "uint256",
          "name": "ExportingDateTime",
          "type": "uint256"
        },
        {
          "internalType": "string",
          "name": "DrugStatus",
          "type": "string"
        }
      ],
      "stateMutability": "view",
      "type": "function"
    },
    {
      "inputs": [
        {
          "internalType": "address",
          "name": "",
          "type": "address"
        }
      ],
      "name": "BatchPharmacyDetails",
      "outputs": [
        {
          "internalType": "string",
          "name": "PharmacyName",
          "type": "string"
        },
        {
          "internalType": "string",
          "name": "PharmacyAddress",
          "type": "string"
        },
        {
          "internalType": "uint32",
          "name": "ImportingTemparature",
          "type": "uint32"
        },
        {
          "internalType": "string",
          "name": "DrugStatus",
          "type": "string"
        },
        {
          "internalType": "uint256",
          "name": "ImportingDateTime",
          "type": "uint256"
        }
      ],
      "stateMutability": "view",
      "type": "function"
    },
    {
      "inputs": [
        {
          "internalType": "address",
          "name": "",
          "type": "address"
        }
      ],
      "name": "BatchUserDetails",
      "outputs": [
        {
          "internalType": "string",
          "name": "ParticipantName",
          "type": "string"
        },
        {
          "internalType": "string",
          "name": "contactNo",
          "type": "string"
        },
        {
          "internalType": "bool",
          "name": "isActive",
          "type": "bool"
        },
        {
          "internalType": "string",
          "name": "UserName",
          "type": "string"
        },
        {
          "internalType": "string",
          "name": "userPassword",
          "type": "string"
        },
        {
          "internalType": "string",
          "name": "Email",
          "type": "string"
        }
      ],
      "stateMutability": "view",
      "type": "function"
    },
    {
      "inputs": [
        {
          "internalType": "address",
          "name": "",
          "type": "address"
        }
      ],
      "name": "BatchWholesalerDetails",
      "outputs": [
        {
          "internalType": "string",
          "name": "name",
          "type": "string"
        },
        {
          "internalType": "string",
          "name": "WholesalerAddress",
          "type": "string"
        },
        {
          "internalType": "uint32",
          "name": "ImportingTemparature",
          "type": "uint32"
        },
        {
          "internalType": "uint32",
          "name": "ExportingTemparature",
          "type": "uint32"
        },
        {
          "internalType": "uint256",
          "name": "ImportingDateTime",
          "type": "uint256"
        },
        {
          "internalType": "uint256",
          "name": "ExportingDateTime",
          "type": "uint256"
        },
        {
          "internalType": "address",
          "name": "ExporterAddress",
          "type": "address"
        },
        {
          "internalType": "string",
          "name": "DrugStatus",
          "type": "string"
        }
      ],
      "stateMutability": "view",
      "type": "function"
    },
    {
      "inputs": [
        {
          "internalType": "address",
          "name": "",
          "type": "address"
        }
      ],
      "name": "BatchdistributorDetails",
      "outputs": [
        {
          "internalType": "string",
          "name": "name",
          "type": "string"
        },
        {
          "internalType": "string",
          "name": "DistributorAddress",
          "type": "string"
        },
        {
          "internalType": "uint32",
          "name": "ImportingTemparature",
          "type": "uint32"
        },
        {
          "internalType": "uint32",
          "name": "ExportingTemparature",
          "type": "uint32"
        },
        {
          "internalType": "uint256",
          "name": "ImportingDateTime",
          "type": "uint256"
        },
        {
          "internalType": "uint256",
          "name": "ExportingDateTime",
          "type": "uint256"
        },
        {
          "internalType": "address",
          "name": "ExporterAddress",
          "type": "address"
        },
        {
          "internalType": "string",
          "name": "DrugStatus",
          "type": "string"
        }
      ],
      "stateMutability": "view",
      "type": "function"
    },
    {
      "inputs": [
        {
          "internalType": "uint256",
          "name": "",
          "type": "uint256"
        }
      ],
      "name": "DrugKeyList",
      "outputs": [
        {
          "internalType": "address",
          "name": "",
          "type": "address"
        }
      ],
      "stateMutability": "view",
      "type": "function"
    },
    {
      "inputs": [
        {
          "internalType": "uint256",
          "name": "",
          "type": "uint256"
        }
      ],
      "name": "UserKeyList",
      "outputs": [
        {
          "internalType": "address",
          "name": "",
          "type": "address"
        }
      ],
      "stateMutability": "view",
      "type": "function"
    },
    {
      "inputs": [],
      "name": "owner",
      "outputs": [
        {
          "internalType": "address",
          "name": "",
          "type": "address"
        }
      ],
      "stateMutability": "view",
      "type": "function"
    },
    {
      "inputs": [
        {
          "internalType": "address",
          "name": "_userAddress",
          "type": "address"
        }
      ],
      "name": "getUserRole",
      "outputs": [
        {
          "internalType": "string",
          "name": "",
          "type": "string"
        }
      ],
      "stateMutability": "view",
      "type": "function"
    },
    {
      "inputs": [],
      "name": "getDrugKeyList",
      "outputs": [
        {
          "internalType": "address[]",
          "name": "",
          "type": "address[]"
        }
      ],
      "stateMutability": "view",
      "type": "function"
    },
    {
      "inputs": [],
      "name": "getUserKeyList",
      "outputs": [
        {
          "internalType": "address[]",
          "name": "",
          "type": "address[]"
        }
      ],
      "stateMutability": "view",
      "type": "function"
    },
    {
      "inputs": [
        {
          "internalType": "address",
          "name": "_userAddress",
          "type": "address"
        },
        {
          "internalType": "string",
          "name": "_ParticipantName",
          "type": "string"
        },
        {
          "internalType": "string",
          "name": "_contactNo",
          "type": "string"
        },
        {
          "internalType": "string",
          "name": "_role",
          "type": "string"
        },
        {
          "internalType": "string",
          "name": "_UserName",
          "type": "string"
        },
        {
          "internalType": "string",
          "name": "_UserPassword",
          "type": "string"
        },
        {
          "internalType": "string",
          "name": "_Email",
          "type": "string"
        },
        {
          "internalType": "bool",
          "name": "_isActive",
          "type": "bool"
        }
      ],
      "name": "setUser",
      "outputs": [
        {
          "internalType": "bool",
          "name": "",
          "type": "bool"
        }
      ],
      "stateMutability": "nonpayable",
      "type": "function"
    },
    {
      "inputs": [
        {
          "internalType": "uint32",
          "name": "_drugID",
          "type": "uint32"
        },
        {
          "internalType": "uint32",
          "name": "_batchID",
          "type": "uint32"
        },
        {
          "internalType": "string",
          "name": "_drugName",
          "type": "string"
        },
        {
          "internalType": "string",
          "name": "_Currentlocation",
          "type": "string"
        },
        {
          "internalType": "uint256",
          "name": "_mfgTimeStamp",
          "type": "uint256"
        },
        {
          "internalType": "uint256",
          "name": "_expTimeStamp",
          "type": "uint256"
        },
        {
          "internalType": "uint32",
          "name": "_CurrentTemperature",
          "type": "uint32"
        },
        {
          "internalType": "uint32",
          "name": "_IdealTemperature",
          "type": "uint32"
        }
      ],
      "name": "setDrugDetails",
      "outputs": [
        {
          "internalType": "address",
          "name": "",
          "type": "address"
        }
      ],
      "stateMutability": "nonpayable",
      "type": "function"
    },
    {
      "inputs": [
        {
          "internalType": "address",
          "name": "_SerialNumber",
          "type": "address"
        },
        {
          "internalType": "string",
          "name": "_name",
          "type": "string"
        },
        {
          "internalType": "string",
          "name": "_ManufacturerAddress",
          "type": "string"
        },
        {
          "internalType": "address",
          "name": "_ExporterAddress",
          "type": "address"
        },
        {
          "internalType": "uint32",
          "name": "_ExportingTemparature",
          "type": "uint32"
        }
      ],
      "name": "MoveFromManufacturer",
      "outputs": [
        {
          "internalType": "bool",
          "name": "",
          "type": "bool"
        }
      ],
      "stateMutability": "nonpayable",
      "type": "function"
    },
    {
      "inputs": [
        {
          "internalType": "address",
          "name": "_SerialNumber",
          "type": "address"
        },
        {
          "internalType": "string",
          "name": "_name",
          "type": "string"
        },
        {
          "internalType": "string",
          "name": "_DistributorAddress",
          "type": "string"
        },
        {
          "internalType": "uint32",
          "name": "_ImportingTemparature",
          "type": "uint32"
        }
      ],
      "name": "distributorReceving",
      "outputs": [
        {
          "internalType": "bool",
          "name": "",
          "type": "bool"
        }
      ],
      "stateMutability": "nonpayable",
      "type": "function"
    },
    {
      "inputs": [
        {
          "internalType": "address",
          "name": "_SerialNumber",
          "type": "address"
        },
        {
          "internalType": "uint32",
          "name": "_ExportingTemparature",
          "type": "uint32"
        },
        {
          "internalType": "address",
          "name": "_ExporterAddress",
          "type": "address"
        }
      ],
      "name": "MoveFromDistributor",
      "outputs": [
        {
          "internalType": "bool",
          "name": "",
          "type": "bool"
        }
      ],
      "stateMutability": "nonpayable",
      "type": "function"
    },
    {
      "inputs": [
        {
          "internalType": "address",
          "name": "_SerialNumber",
          "type": "address"
        },
        {
          "internalType": "string",
          "name": "_name",
          "type": "string"
        },
        {
          "internalType": "string",
          "name": "_DistributorAddress",
          "type": "string"
        },
        {
          "internalType": "uint32",
          "name": "_ImportingTemparature",
          "type": "uint32"
        }
      ],
      "name": "WholeSalerReceving",
      "outputs": [
        {
          "internalType": "bool",
          "name": "",
          "type": "bool"
        }
      ],
      "stateMutability": "nonpayable",
      "type": "function"
    },
    {
      "inputs": [
        {
          "internalType": "address",
          "name": "_SerialNumber",
          "type": "address"
        },
        {
          "internalType": "uint32",
          "name": "_ExportingTemparature",
          "type": "uint32"
        },
        {
          "internalType": "address",
          "name": "_ExporterAddress",
          "type": "address"
        }
      ],
      "name": "moveFromWholesaler",
      "outputs": [
        {
          "internalType": "bool",
          "name": "",
          "type": "bool"
        }
      ],
      "stateMutability": "nonpayable",
      "type": "function"
    },
    {
      "inputs": [
        {
          "internalType": "address",
          "name": "_SerialNumber",
          "type": "address"
        },
        {
          "internalType": "string",
          "name": "_PharmacyName",
          "type": "string"
        },
        {
          "internalType": "string",
          "name": "_PharmacyAddress",
          "type": "string"
        },
        {
          "internalType": "uint32",
          "name": "_ImportingTemparature",
          "type": "uint32"
        }
      ],
      "name": "importToPharmacy",
      "outputs": [
        {
          "internalType": "bool",
          "name": "",
          "type": "bool"
        }
      ],
      "stateMutability": "nonpayable",
      "type": "function"
    },
    {
      "inputs": [
        {
          "internalType": "address",
          "name": "_SerialNumber",
          "type": "address"
        }
      ],
      "name": "getDrugDetails1",
      "outputs": [
        {
          "internalType": "uint32",
          "name": "_drugID",
          "type": "uint32"
        },
        {
          "internalType": "uint32",
          "name": "_batchID",
          "type": "uint32"
        },
        {
          "internalType": "string",
          "name": "_drugName",
          "type": "string"
        },
        {
          "internalType": "string",
          "name": "_Currentlocation",
          "type": "string"
        },
        {
          "internalType": "string",
          "name": "_status",
          "type": "string"
        },
        {
          "internalType": "bool",
          "name": "_isBad",
          "type": "bool"
        }
      ],
      "stateMutability": "view",
      "type": "function"
    },
    {
      "inputs": [
        {
          "internalType": "address",
          "name": "_SerialNumber",
          "type": "address"
        }
      ],
      "name": "getDrugDetails2",
      "outputs": [
        {
          "internalType": "address",
          "name": "_CurrentproductOwner",
          "type": "address"
        },
        {
          "internalType": "uint256",
          "name": "_mfgTimeStamp",
          "type": "uint256"
        },
        {
          "internalType": "uint256",
          "name": "_expTimeStamp",
          "type": "uint256"
        },
        {
          "internalType": "uint32",
          "name": "_CurrentTemperature",
          "type": "uint32"
        },
        {
          "internalType": "uint32",
          "name": "_IdealTemperature",
          "type": "uint32"
        },
        {
          "internalType": "address",
          "name": "_nextOwner",
          "type": "address"
        }
      ],
      "stateMutability": "view",
      "type": "function"
    },
    {
      "inputs": [
        {
          "internalType": "string",
          "name": "_username",
          "type": "string"
        },
        {
          "internalType": "string",
          "name": "_password",
          "type": "string"
        },
        {
          "internalType": "address",
          "name": "_userAddress",
          "type": "address"
        }
      ],
      "name": "Authenticate",
      "outputs": [
        {
          "internalType": "bool",
          "name": "",
          "type": "bool"
        }
      ],
      "stateMutability": "view",
      "type": "function"
    },
    {
      "inputs": [
        {
          "internalType": "address",
          "name": "_caller",
          "type": "address"
        }
      ],
      "name": "authorizeCaller",
      "outputs": [
        {
          "internalType": "bool",
          "name": "",
          "type": "bool"
        }
      ],
      "stateMutability": "nonpayable",
      "type": "function"
    },
    {
      "inputs": [
        {
          "internalType": "address",
          "name": "_caller",
          "type": "address"
        }
      ],
      "name": "deAuthorizeCaller",
      "outputs": [
        {
          "internalType": "bool",
          "name": "",
          "type": "bool"
        }
      ],
      "stateMutability": "nonpayable",
      "type": "function"
    },
    {
      "inputs": [
        {
          "internalType": "address",
          "name": "_SerialNumber",
          "type": "address"
        }
      ],
      "name": "getnextOwner",
      "outputs": [
        {
          "internalType": "string",
          "name": "",
          "type": "string"
        }
      ],
      "stateMutability": "view",
      "type": "function"
    }
  ],
  "bytecode": "0x60806040523480156200001157600080fd5b50336000806101000a81548173ffffffffffffffffffffffffffffffffffffffff021916908373ffffffffffffffffffffffffffffffffffffffff1602179055506001600460003373ffffffffffffffffffffffffffffffffffffffff1673ffffffffffffffffffffffffffffffffffffffff16815260200190815260200160002060006101000a81548160ff021916908360ff16021790555061895a80620000bb6000396000f3fe608060405234801561001057600080fd5b506004361061018e5760003560e01c806373b65114116100de578063aea1cf4f11610097578063f3c954a311610071578063f3c954a3146105a3578063f4d84121146105d3578063f7770b2f14610603578063fa3bb921146106335761018e565b8063aea1cf4f1461050e578063cb44685f1461053e578063f2a3b6ae146105735761018e565b806373b65114146103f25780638348a930146104265780638a6f9f88146104565780638da5cb5b1461048b5780638f160233146104a95780639d420132146104de5761018e565b806332d9df271161014b578063599fe93111610125578063599fe93114610324578063654032e01461035b5780637080f2eb1461038b57806372d80681146103c25761018e565b806332d9df271461028f57806337976a74146102bf5780634118ad90146102f45761018e565b806308094b67146101935780631805fc7a146101b15780631bcd250a146101cf5780631d0c8dbd146101ff578063278208511461022f5780632c388d5d1461025f575b600080fd5b61019b61066e565b6040516101a89190618333565b60405180910390f35b6101b96106fc565b6040516101c69190618333565b60405180910390f35b6101e960048036036101e49190810190617b9c565b61078a565b6040516101f69190618355565b60405180910390f35b61021960048036036102149190810190617b9c565b610881565b6040516102269190618370565b60405180910390f35b61024960048036036102449190810190617b9c565b6109be565b6040516102569190618370565b60405180910390f35b61027960048036036102749190810190617b9c565b610afb565b6040516102869190618355565b60405180910390f35b6102a960048036036102a49190810190617f0f565b610bf2565b6040516102b691906182b7565b60405180910390f35b6102d960048036036102d49190810190617b9c565b610c2e565b6040516102eb969594939291906185c7565b60405180910390f35b61030e60048036036103099190810190617e41565b611081565b60405161031b9190618355565b60405180910390f35b61033e60048036036103399190810190617b9c565b611a76565b6040516103529897969594939291906184f4565b60405180910390f35b61037560048036036103709190810190617f38565b611cc6565b60405161038291906182b7565b60405180910390f35b6103a560048036036103a09190810190617b9c565b6122aa565b6040516103b99897969594939291906184f4565b60405180910390f35b6103dc60048036036103d79190810190617dae565b6124fa565b6040516103e99190618355565b60405180910390f35b61040c60048036036104079190810190617b9c565b612e9c565b60405161041d95949392919061848c565b60405180910390f35b610440600480360361043b9190810190617c6c565b6130aa565b60405161044d9190618355565b60405180910390f35b610470600480360361046b9190810190617b9c565b6133fd565b604051610482969594939291906182d2565b60405180910390f35b610493613846565b6040516104a091906182b7565b60405180910390f35b6104c360048036036104be9190810190617b9c565b61386b565b6040516104d596959493929190618408565b60405180910390f35b6104f860048036036104f39190810190617e90565b613bac565b6040516105059190618355565b60405180910390f35b61052860048036036105239190810190617bc5565b614077565b6040516105359190618355565b60405180910390f35b61055860048036036105539190810190617b9c565b614a61565b60405161056a96959493929190618392565b60405180910390f35b61058d60048036036105889190810190617dae565b614c95565b60405161059a9190618355565b60405180910390f35b6105bd60048036036105b89190810190617f0f565b6155d4565b6040516105ca91906182b7565b60405180910390f35b6105ed60048036036105e89190810190617dae565b615610565b6040516105fa9190618355565b60405180910390f35b61061d60048036036106189190810190617e41565b615ff7565b60405161062a9190618355565b60405180910390f35b61064d60048036036106489190810190617b9c565b6169ec565b6040516106659c9b9a9998979695949392919061863d565b60405180910390f35b606060018054806020026020016040519081016040528092919081815260200182805480156106f257602002820191906000526020600020905b8160009054906101000a900473ffffffffffffffffffffffffffffffffffffffff1673ffffffffffffffffffffffffffffffffffffffff16815260200190600101908083116106a8575b5050505050905090565b6060600280548060200260200160405190810160405280929190818152602001828054801561078057602002820191906000526020600020905b8160009054906101000a900473ffffffffffffffffffffffffffffffffffffffff1673ffffffffffffffffffffffffffffffffffffffff1681526020019060010190808311610736575b5050505050905090565b60006001600460003273ffffffffffffffffffffffffffffffffffffffff1673ffffffffffffffffffffffffffffffffffffffff16815260200190815260200160002060009054906101000a900460ff1660ff16146107e857600080fd5b6000600460008473ffffffffffffffffffffffffffffffffffffffff1673ffffffffffffffffffffffffffffffffffffffff16815260200190815260200160002060006101000a81548160ff021916908360ff1602179055507f9e8ca6ff03906e81e8a6a03d4f96b7edb0b97f0ed9d07ef1b699fff6343854968260405161087091906182b7565b60405180910390a160019050919050565b60606001600460003273ffffffffffffffffffffffffffffffffffffffff1673ffffffffffffffffffffffffffffffffffffffff16815260200190815260200160002060009054906101000a900460ff1660ff16146108df57600080fd5b600560008373ffffffffffffffffffffffffffffffffffffffff1673ffffffffffffffffffffffffffffffffffffffff1681526020019081526020016000208054600181600116156101000203166002900480601f0160208091040260200160405190810160405280929190818152602001828054600181600116156101000203166002900480156109b25780601f10610987576101008083540402835291602001916109b2565b820191906000526020600020905b81548152906001019060200180831161099557829003601f168201915b50505050509050919050565b60606001600460003273ffffffffffffffffffffffffffffffffffffffff1673ffffffffffffffffffffffffffffffffffffffff16815260200190815260200160002060009054906101000a900460ff1660ff1614610a1c57600080fd5b600360008373ffffffffffffffffffffffffffffffffffffffff1673ffffffffffffffffffffffffffffffffffffffff1681526020019081526020016000208054600181600116156101000203166002900480601f016020809104026020016040519081016040528092919081815260200182805460018160011615610100020316600290048015610aef5780601f10610ac457610100808354040283529160200191610aef565b820191906000526020600020905b815481529060010190602001808311610ad257829003601f168201915b50505050509050919050565b60006001600460003273ffffffffffffffffffffffffffffffffffffffff1673ffffffffffffffffffffffffffffffffffffffff16815260200190815260200160002060009054906101000a900460ff1660ff1614610b5957600080fd5b6001600460008473ffffffffffffffffffffffffffffffffffffffff1673ffffffffffffffffffffffffffffffffffffffff16815260200190815260200160002060006101000a81548160ff021916908360ff1602179055507f8afeca650897be3183b7c0d24eba96a1b990f75c4bd74a0cfb2c0a71aec48e6182604051610be191906182b7565b60405180910390a160019050919050565b60028181548110610bff57fe5b906000526020600020016000915054906101000a900473ffffffffffffffffffffffffffffffffffffffff1681565b600080606080606060006001600460003273ffffffffffffffffffffffffffffffffffffffff1673ffffffffffffffffffffffffffffffffffffffff16815260200190815260200160002060009054906101000a900460ff1660ff1614610c9457600080fd5b610c9c6178e9565b600660008973ffffffffffffffffffffffffffffffffffffffff1673ffffffffffffffffffffffffffffffffffffffff168152602001908152602001600020604051806101800160405290816000820160009054906101000a900463ffffffff1663ffffffff1663ffffffff1681526020016000820160049054906101000a900463ffffffff1663ffffffff1663ffffffff168152602001600182018054600181600116156101000203166002900480601f016020809104026020016040519081016040528092919081815260200182805460018160011615610100020316600290048015610dcc5780601f10610da157610100808354040283529160200191610dcc565b820191906000526020600020905b815481529060010190602001808311610daf57829003601f168201915b50505050508152602001600282018054600181600116156101000203166002900480601f016020809104026020016040519081016040528092919081815260200182805460018160011615610100020316600290048015610e6e5780601f10610e4357610100808354040283529160200191610e6e565b820191906000526020600020905b815481529060010190602001808311610e5157829003601f168201915b505050505081526020016003820160009054906101000a900473ffffffffffffffffffffffffffffffffffffffff1673ffffffffffffffffffffffffffffffffffffffff1673ffffffffffffffffffffffffffffffffffffffff1681526020016004820160009054906101000a900473ffffffffffffffffffffffffffffffffffffffff1673ffffffffffffffffffffffffffffffffffffffff1673ffffffffffffffffffffffffffffffffffffffff16815260200160058201548152602001600682015481526020016007820160009054906101000a900463ffffffff1663ffffffff1663ffffffff1681526020016007820160049054906101000a900463ffffffff1663ffffffff1663ffffffff168152602001600882018054600181600116156101000203166002900480601f01602080910402602001604051908101604052809291908181526020018280546001816001161561010002031660029004801561101c5780601f10610ff15761010080835404028352916020019161101c565b820191906000526020600020905b815481529060010190602001808311610fff57829003601f168201915b505050505081526020016009820160009054906101000a900460ff161515151581525050905080600001518160200151826040015183606001518461014001518561016001518393508292508191509650965096509650965096505091939550919395565b60006001600460003273ffffffffffffffffffffffffffffffffffffffff1673ffffffffffffffffffffffffffffffffffffffff16815260200190815260200160002060009054906101000a900460ff1660ff16146110df57600080fd5b833273ffffffffffffffffffffffffffffffffffffffff16600660008373ffffffffffffffffffffffffffffffffffffffff1673ffffffffffffffffffffffffffffffffffffffff16815260200190815260200160002060030160009054906101000a900473ffffffffffffffffffffffffffffffffffffffff1673ffffffffffffffffffffffffffffffffffffffff161461117a57600080fd5b60006111868686616ca1565b90508015611a6857600660008773ffffffffffffffffffffffffffffffffffffffff1673ffffffffffffffffffffffffffffffffffffffff168152602001908152602001600020600c6000820160009054906101000a900463ffffffff168160000160006101000a81548163ffffffff021916908363ffffffff1602179055506000820160049054906101000a900463ffffffff168160000160046101000a81548163ffffffff021916908363ffffffff16021790555060018201816001019080546001816001161561010002031660029004611264929190617990565b506002820181600201908054600181600116156101000203166002900461128c929190617990565b506003820160009054906101000a900473ffffffffffffffffffffffffffffffffffffffff168160030160006101000a81548173ffffffffffffffffffffffffffffffffffffffff021916908373ffffffffffffffffffffffffffffffffffffffff1602179055506004820160009054906101000a900473ffffffffffffffffffffffffffffffffffffffff168160040160006101000a81548173ffffffffffffffffffffffffffffffffffffffff021916908373ffffffffffffffffffffffffffffffffffffffff16021790555060058201548160050155600682015481600601556007820160009054906101000a900463ffffffff168160070160006101000a81548163ffffffff021916908363ffffffff1602179055506007820160049054906101000a900463ffffffff168160070160046101000a81548163ffffffff021916908363ffffffff16021790555060088201816008019080546001816001161561010002031660029004611404929190617990565b506009820160009054906101000a900460ff168160090160006101000a81548160ff0219169083151502179055509050506040518060400160405280601b81526020017f496e205472616e7369742066726f6d204469737472696275746f720000000000815250600c6008019080519060200190611483929190617a17565b5083600c60040160006101000a81548173ffffffffffffffffffffffffffffffffffffffff021916908373ffffffffffffffffffffffffffffffffffffffff16021790555084602160020160046101000a81548163ffffffff021916908363ffffffff1602179055504260216004018190555083602160050160006101000a81548173ffffffffffffffffffffffffffffffffffffffff021916908373ffffffffffffffffffffffffffffffffffffffff1602179055506040518060400160405280600481526020017f476f6f640000000000000000000000000000000000000000000000000000000081525060216006019080519060200190611588929190617a17565b506021600960008873ffffffffffffffffffffffffffffffffffffffff1673ffffffffffffffffffffffffffffffffffffffff168152602001908152602001600020600082018160000190805460018160011615610100020316600290046115f1929190617990565b5060018201816001019080546001816001161561010002031660029004611619929190617990565b506002820160009054906101000a900463ffffffff168160020160006101000a81548163ffffffff021916908363ffffffff1602179055506002820160049054906101000a900463ffffffff168160020160046101000a81548163ffffffff021916908363ffffffff16021790555060038201548160030155600482015481600401556005820160009054906101000a900473ffffffffffffffffffffffffffffffffffffffff168160050160006101000a81548173ffffffffffffffffffffffffffffffffffffffff021916908373ffffffffffffffffffffffffffffffffffffffff1602179055506006820181600601908054600181600116156101000203166002900461172a929190617990565b509050506040518060400160405280600a81526020017f57686f6c6573616c657200000000000000000000000000000000000000000000815250600560008873ffffffffffffffffffffffffffffffffffffffff1673ffffffffffffffffffffffffffffffffffffffff16815260200190815260200160002090805190602001906117b6929190617a17565b50600c600660008873ffffffffffffffffffffffffffffffffffffffff1673ffffffffffffffffffffffffffffffffffffffff1681526020019081526020016000206000820160009054906101000a900463ffffffff168160000160006101000a81548163ffffffff021916908363ffffffff1602179055506000820160049054906101000a900463ffffffff168160000160046101000a81548163ffffffff021916908363ffffffff1602179055506001820181600101908054600181600116156101000203166002900461188d929190617990565b50600282018160020190805460018160011615610100020316600290046118b5929190617990565b506003820160009054906101000a900473ffffffffffffffffffffffffffffffffffffffff168160030160006101000a81548173ffffffffffffffffffffffffffffffffffffffff021916908373ffffffffffffffffffffffffffffffffffffffff1602179055506004820160009054906101000a900473ffffffffffffffffffffffffffffffffffffffff168160040160006101000a81548173ffffffffffffffffffffffffffffffffffffffff021916908373ffffffffffffffffffffffffffffffffffffffff16021790555060058201548160050155600682015481600601556007820160009054906101000a900463ffffffff168160070160006101000a81548163ffffffff021916908363ffffffff1602179055506007820160049054906101000a900463ffffffff168160070160046101000a81548163ffffffff021916908363ffffffff16021790555060088201816008019080546001816001161561010002031660029004611a2d929190617990565b506009820160009054906101000a900460ff168160090160006101000a81548160ff0219169083151502179055509050506001925050611a6e565b60009250505b509392505050565b600a602052806000526040600020600091509050806000018054600181600116156101000203166002900480601f016020809104026020016040519081016040528092919081815260200182805460018160011615610100020316600290048015611b225780601f10611af757610100808354040283529160200191611b22565b820191906000526020600020905b815481529060010190602001808311611b0557829003601f168201915b505050505090806001018054600181600116156101000203166002900480601f016020809104026020016040519081016040528092919081815260200182805460018160011615610100020316600290048015611bc05780601f10611b9557610100808354040283529160200191611bc0565b820191906000526020600020905b815481529060010190602001808311611ba357829003601f168201915b5050505050908060020160009054906101000a900463ffffffff16908060020160049054906101000a900463ffffffff16908060030154908060040154908060050160009054906101000a900473ffffffffffffffffffffffffffffffffffffffff1690806006018054600181600116156101000203166002900480601f016020809104026020016040519081016040528092919081815260200182805460018160011615610100020316600290048015611cbc5780601f10611c9157610100808354040283529160200191611cbc565b820191906000526020600020905b815481529060010190602001808311611c9f57829003601f168201915b5050505050905088565b60008060009054906101000a900473ffffffffffffffffffffffffffffffffffffffff1673ffffffffffffffffffffffffffffffffffffffff163273ffffffffffffffffffffffffffffffffffffffff1614611d2157600080fd5b60003342604051602001611d3692919061825d565b6040516020818303038152906040528051906020012060001c905060008190506001819080600181540180825580915050600190039060005260206000200160009091909190916101000a81548173ffffffffffffffffffffffffffffffffffffffff021916908373ffffffffffffffffffffffffffffffffffffffff1602179055508a600c60000160006101000a81548163ffffffff021916908363ffffffff16021790555089600c60000160046101000a81548163ffffffff021916908363ffffffff16021790555088600c6001019080519060200190611e1a929190617a17565b5087600c6002019080519060200190611e34929190617a17565b5032600c60030160006101000a81548173ffffffffffffffffffffffffffffffffffffffff021916908373ffffffffffffffffffffffffffffffffffffffff16021790555086600c6005018190555085600c6006018190555084600c60070160006101000a81548163ffffffff021916908363ffffffff16021790555083600c60070160046101000a81548163ffffffff021916908363ffffffff1602179055506040518060400160405280600481526020017f476f6f6400000000000000000000000000000000000000000000000000000000815250600c6008019080519060200190611f23929190617a17565b506000600c60040160006101000a81548173ffffffffffffffffffffffffffffffffffffffff021916908373ffffffffffffffffffffffffffffffffffffffff1602179055506040518060400160405280600c81526020017f4d616e7566616374757265720000000000000000000000000000000000000000815250600560008373ffffffffffffffffffffffffffffffffffffffff1673ffffffffffffffffffffffffffffffffffffffff1681526020019081526020016000209080519060200190611ff1929190617a17565b50600c600660008373ffffffffffffffffffffffffffffffffffffffff1673ffffffffffffffffffffffffffffffffffffffff1681526020019081526020016000206000820160009054906101000a900463ffffffff168160000160006101000a81548163ffffffff021916908363ffffffff1602179055506000820160049054906101000a900463ffffffff168160000160046101000a81548163ffffffff021916908363ffffffff160217905550600182018160010190805460018160011615610100020316600290046120c8929190617990565b50600282018160020190805460018160011615610100020316600290046120f0929190617990565b506003820160009054906101000a900473ffffffffffffffffffffffffffffffffffffffff168160030160006101000a81548173ffffffffffffffffffffffffffffffffffffffff021916908373ffffffffffffffffffffffffffffffffffffffff1602179055506004820160009054906101000a900473ffffffffffffffffffffffffffffffffffffffff168160040160006101000a81548173ffffffffffffffffffffffffffffffffffffffff021916908373ffffffffffffffffffffffffffffffffffffffff16021790555060058201548160050155600682015481600601556007820160009054906101000a900463ffffffff168160070160006101000a81548163ffffffff021916908363ffffffff1602179055506007820160049054906101000a900463ffffffff168160070160046101000a81548163ffffffff021916908363ffffffff16021790555060088201816008019080546001816001161561010002031660029004612268929190617990565b506009820160009054906101000a900460ff168160090160006101000a81548160ff021916908315150217905550905050809250505098975050505050505050565b6009602052806000526040600020600091509050806000018054600181600116156101000203166002900480601f0160208091040260200160405190810160405280929190818152602001828054600181600116156101000203166002900480156123565780601f1061232b57610100808354040283529160200191612356565b820191906000526020600020905b81548152906001019060200180831161233957829003601f168201915b505050505090806001018054600181600116156101000203166002900480601f0160208091040260200160405190810160405280929190818152602001828054600181600116156101000203166002900480156123f45780601f106123c9576101008083540402835291602001916123f4565b820191906000526020600020905b8154815290600101906020018083116123d757829003601f168201915b5050505050908060020160009054906101000a900463ffffffff16908060020160049054906101000a900463ffffffff16908060030154908060040154908060050160009054906101000a900473ffffffffffffffffffffffffffffffffffffffff1690806006018054600181600116156101000203166002900480601f0160208091040260200160405190810160405280929190818152602001828054600181600116156101000203166002900480156124f05780601f106124c5576101008083540402835291602001916124f0565b820191906000526020600020905b8154815290600101906020018083116124d357829003601f168201915b5050505050905088565b60006001600460003273ffffffffffffffffffffffffffffffffffffffff1673ffffffffffffffffffffffffffffffffffffffff16815260200190815260200160002060009054906101000a900460ff1660ff161461255857600080fd5b843273ffffffffffffffffffffffffffffffffffffffff16600660008373ffffffffffffffffffffffffffffffffffffffff1673ffffffffffffffffffffffffffffffffffffffff16815260200190815260200160002060040160009054906101000a900473ffffffffffffffffffffffffffffffffffffffff1673ffffffffffffffffffffffffffffffffffffffff16146125f357600080fd5b60006125ff8785616ca1565b90508015612e8d57600660008873ffffffffffffffffffffffffffffffffffffffff1673ffffffffffffffffffffffffffffffffffffffff168152602001908152602001600020600c6000820160009054906101000a900463ffffffff168160000160006101000a81548163ffffffff021916908363ffffffff1602179055506000820160049054906101000a900463ffffffff168160000160046101000a81548163ffffffff021916908363ffffffff160217905550600182018160010190805460018160011615610100020316600290046126dd929190617990565b5060028201816002019080546001816001161561010002031660029004612705929190617990565b506003820160009054906101000a900473ffffffffffffffffffffffffffffffffffffffff168160030160006101000a81548173ffffffffffffffffffffffffffffffffffffffff021916908373ffffffffffffffffffffffffffffffffffffffff1602179055506004820160009054906101000a900473ffffffffffffffffffffffffffffffffffffffff168160040160006101000a81548173ffffffffffffffffffffffffffffffffffffffff021916908373ffffffffffffffffffffffffffffffffffffffff16021790555060058201548160050155600682015481600601556007820160009054906101000a900463ffffffff168160070160006101000a81548163ffffffff021916908363ffffffff1602179055506007820160049054906101000a900463ffffffff168160070160046101000a81548163ffffffff021916908363ffffffff1602179055506008820181600801908054600181600116156101000203166002900461287d929190617990565b506009820160009054906101000a900460ff168160090160006101000a81548160ff02191690831515021790555090505085602160000190805190602001906128c7929190617a17565b5084602160010190805190602001906128e1929190617a17565b5083602160020160006101000a81548163ffffffff021916908363ffffffff160217905550426021600301819055506040518060400160405280600481526020017f476f6f64000000000000000000000000000000000000000000000000000000008152506021600601908051906020019061295e929190617a17565b506021600960008973ffffffffffffffffffffffffffffffffffffffff1673ffffffffffffffffffffffffffffffffffffffff168152602001908152602001600020600082018160000190805460018160011615610100020316600290046129c7929190617990565b50600182018160010190805460018160011615610100020316600290046129ef929190617990565b506002820160009054906101000a900463ffffffff168160020160006101000a81548163ffffffff021916908363ffffffff1602179055506002820160049054906101000a900463ffffffff168160020160046101000a81548163ffffffff021916908363ffffffff16021790555060038201548160030155600482015481600401556005820160009054906101000a900473ffffffffffffffffffffffffffffffffffffffff168160050160006101000a81548173ffffffffffffffffffffffffffffffffffffffff021916908373ffffffffffffffffffffffffffffffffffffffff16021790555060068201816006019080546001816001161561010002031660029004612b00929190617990565b5090505032600c60030160006101000a81548173ffffffffffffffffffffffffffffffffffffffff021916908373ffffffffffffffffffffffffffffffffffffffff1602179055506000600c60040160006101000a81548173ffffffffffffffffffffffffffffffffffffffff021916908373ffffffffffffffffffffffffffffffffffffffff1602179055506040518060400160405280601781526020017f5265636569766564206279204469737472696275746f72000000000000000000815250600c6008019080519060200190612bdb929190617a17565b50600c600660008973ffffffffffffffffffffffffffffffffffffffff1673ffffffffffffffffffffffffffffffffffffffff1681526020019081526020016000206000820160009054906101000a900463ffffffff168160000160006101000a81548163ffffffff021916908363ffffffff1602179055506000820160049054906101000a900463ffffffff168160000160046101000a81548163ffffffff021916908363ffffffff16021790555060018201816001019080546001816001161561010002031660029004612cb2929190617990565b5060028201816002019080546001816001161561010002031660029004612cda929190617990565b506003820160009054906101000a900473ffffffffffffffffffffffffffffffffffffffff168160030160006101000a81548173ffffffffffffffffffffffffffffffffffffffff021916908373ffffffffffffffffffffffffffffffffffffffff1602179055506004820160009054906101000a900473ffffffffffffffffffffffffffffffffffffffff168160040160006101000a81548173ffffffffffffffffffffffffffffffffffffffff021916908373ffffffffffffffffffffffffffffffffffffffff16021790555060058201548160050155600682015481600601556007820160009054906101000a900463ffffffff168160070160006101000a81548163ffffffff021916908363ffffffff1602179055506007820160049054906101000a900463ffffffff168160070160046101000a81548163ffffffff021916908363ffffffff16021790555060088201816008019080546001816001161561010002031660029004612e52929190617990565b506009820160009054906101000a900460ff168160090160006101000a81548160ff0219169083151502179055509050506001925050612e93565b60009250505b50949350505050565b600b602052806000526040600020600091509050806000018054600181600116156101000203166002900480601f016020809104026020016040519081016040528092919081815260200182805460018160011615610100020316600290048015612f485780601f10612f1d57610100808354040283529160200191612f48565b820191906000526020600020905b815481529060010190602001808311612f2b57829003601f168201915b505050505090806001018054600181600116156101000203166002900480601f016020809104026020016040519081016040528092919081815260200182805460018160011615610100020316600290048015612fe65780601f10612fbb57610100808354040283529160200191612fe6565b820191906000526020600020905b815481529060010190602001808311612fc957829003601f168201915b5050505050908060020160009054906101000a900463ffffffff1690806003018054600181600116156101000203166002900480601f01602080910402602001604051908101604052809291908181526020018280546001816001161561010002031660029004801561309a5780601f1061306f5761010080835404028352916020019161309a565b820191906000526020600020905b81548152906001019060200180831161307d57829003601f168201915b5050505050908060040154905085565b60008060009054906101000a900473ffffffffffffffffffffffffffffffffffffffff1673ffffffffffffffffffffffffffffffffffffffff163273ffffffffffffffffffffffffffffffffffffffff161461310557600080fd5b876016600001908051906020019061311e929190617a17565b508660166001019080519060200190613138929190617a17565b5081601660020160006101000a81548160ff021916908315150217905550846016600301908051906020019061316f929190617a17565b508260166005019080519060200190613189929190617a17565b5083601660040190805190602001906131a3929190617a17565b506001600460008b73ffffffffffffffffffffffffffffffffffffffff1673ffffffffffffffffffffffffffffffffffffffff16815260200190815260200160002060006101000a81548160ff021916908360ff1602179055506016600760008b73ffffffffffffffffffffffffffffffffffffffff1673ffffffffffffffffffffffffffffffffffffffff16815260200190815260200160002060008201816000019080546001816001161561010002031660029004613265929190617990565b506001820181600101908054600181600116156101000203166002900461328d929190617990565b506002820160009054906101000a900460ff168160020160006101000a81548160ff021916908315150217905550600382018160030190805460018160011615610100020316600290046132e2929190617990565b506004820181600401908054600181600116156101000203166002900461330a929190617990565b5060058201816005019080546001816001161561010002031660029004613332929190617990565b5090505085600360008b73ffffffffffffffffffffffffffffffffffffffff1673ffffffffffffffffffffffffffffffffffffffff1681526020019081526020016000209080519060200190613389929190617a17565b506002899080600181540180825580915050600190039060005260206000200160009091909190916101000a81548173ffffffffffffffffffffffffffffffffffffffff021916908373ffffffffffffffffffffffffffffffffffffffff1602179055506001905098975050505050505050565b6000806000806000806001600460003273ffffffffffffffffffffffffffffffffffffffff1673ffffffffffffffffffffffffffffffffffffffff16815260200190815260200160002060009054906101000a900460ff1660ff161461346257600080fd5b61346a6178e9565b600660008973ffffffffffffffffffffffffffffffffffffffff1673ffffffffffffffffffffffffffffffffffffffff168152602001908152602001600020604051806101800160405290816000820160009054906101000a900463ffffffff1663ffffffff1663ffffffff1681526020016000820160049054906101000a900463ffffffff1663ffffffff1663ffffffff168152602001600182018054600181600116156101000203166002900480601f01602080910402602001604051908101604052809291908181526020018280546001816001161561010002031660029004801561359a5780601f1061356f5761010080835404028352916020019161359a565b820191906000526020600020905b81548152906001019060200180831161357d57829003601f168201915b50505050508152602001600282018054600181600116156101000203166002900480601f01602080910402602001604051908101604052809291908181526020018280546001816001161561010002031660029004801561363c5780601f106136115761010080835404028352916020019161363c565b820191906000526020600020905b81548152906001019060200180831161361f57829003601f168201915b505050505081526020016003820160009054906101000a900473ffffffffffffffffffffffffffffffffffffffff1673ffffffffffffffffffffffffffffffffffffffff1673ffffffffffffffffffffffffffffffffffffffff1681526020016004820160009054906101000a900473ffffffffffffffffffffffffffffffffffffffff1673ffffffffffffffffffffffffffffffffffffffff1673ffffffffffffffffffffffffffffffffffffffff16815260200160058201548152602001600682015481526020016007820160009054906101000a900463ffffffff1663ffffffff1663ffffffff1681526020016007820160049054906101000a900463ffffffff1663ffffffff1663ffffffff168152602001600882018054600181600116156101000203166002900480601f0160208091040260200160405190810160405280929190818152602001828054600181600116156101000203166002900480156137ea5780601f106137bf576101008083540402835291602001916137ea565b820191906000526020600020905b8154815290600101906020018083116137cd57829003601f168201915b505050505081526020016009820160009054906101000a900460ff161515151581525050905080608001518160c001518260e001518361010001518461012001518560a001519650965096509650965096505091939550919395565b6000809054906101000a900473ffffffffffffffffffffffffffffffffffffffff1681565b6007602052806000526040600020600091509050806000018054600181600116156101000203166002900480601f0160208091040260200160405190810160405280929190818152602001828054600181600116156101000203166002900480156139175780601f106138ec57610100808354040283529160200191613917565b820191906000526020600020905b8154815290600101906020018083116138fa57829003601f168201915b505050505090806001018054600181600116156101000203166002900480601f0160208091040260200160405190810160405280929190818152602001828054600181600116156101000203166002900480156139b55780601f1061398a576101008083540402835291602001916139b5565b820191906000526020600020905b81548152906001019060200180831161399857829003601f168201915b5050505050908060020160009054906101000a900460ff1690806003018054600181600116156101000203166002900480601f016020809104026020016040519081016040528092919081815260200182805460018160011615610100020316600290048015613a665780601f10613a3b57610100808354040283529160200191613a66565b820191906000526020600020905b815481529060010190602001808311613a4957829003601f168201915b505050505090806004018054600181600116156101000203166002900480601f016020809104026020016040519081016040528092919081815260200182805460018160011615610100020316600290048015613b045780601f10613ad957610100808354040283529160200191613b04565b820191906000526020600020905b815481529060010190602001808311613ae757829003601f168201915b505050505090806005018054600181600116156101000203166002900480601f016020809104026020016040519081016040528092919081815260200182805460018160011615610100020316600290048015613ba25780601f10613b7757610100808354040283529160200191613ba2565b820191906000526020600020905b815481529060010190602001808311613b8557829003601f168201915b5050505050905086565b6000613bb6617a97565b600760008473ffffffffffffffffffffffffffffffffffffffff1673ffffffffffffffffffffffffffffffffffffffff1681526020019081526020016000206040518060c0016040529081600082018054600181600116156101000203166002900480601f016020809104026020016040519081016040528092919081815260200182805460018160011615610100020316600290048015613c995780601f10613c6e57610100808354040283529160200191613c99565b820191906000526020600020905b815481529060010190602001808311613c7c57829003601f168201915b50505050508152602001600182018054600181600116156101000203166002900480601f016020809104026020016040519081016040528092919081815260200182805460018160011615610100020316600290048015613d3b5780601f10613d1057610100808354040283529160200191613d3b565b820191906000526020600020905b815481529060010190602001808311613d1e57829003601f168201915b505050505081526020016002820160009054906101000a900460ff16151515158152602001600382018054600181600116156101000203166002900480601f016020809104026020016040519081016040528092919081815260200182805460018160011615610100020316600290048015613df85780601f10613dcd57610100808354040283529160200191613df8565b820191906000526020600020905b815481529060010190602001808311613ddb57829003601f168201915b50505050508152602001600482018054600181600116156101000203166002900480601f016020809104026020016040519081016040528092919081815260200182805460018160011615610100020316600290048015613e9a5780601f10613e6f57610100808354040283529160200191613e9a565b820191906000526020600020905b815481529060010190602001808311613e7d57829003601f168201915b50505050508152602001600582018054600181600116156101000203166002900480601f016020809104026020016040519081016040528092919081815260200182805460018160011615610100020316600290048015613f3c5780601f10613f1157610100808354040283529160200191613f3c565b820191906000526020600020905b815481529060010190602001808311613f1f57829003601f168201915b505050505081525050905084604051602001613f5891906182a0565b604051602081830303815290604052805190602001208160600151604051602001613f839190618289565b6040516020818303038152906040528051906020012014613fd9576040517f08c379a0000000000000000000000000000000000000000000000000000000008152600401613fd0906185a7565b60405180910390fd5b83604051602001613fea91906182a0565b6040516020818303038152906040528051906020012081608001516040516020016140159190618289565b604051602081830303815290604052805190602001201461406b576040517f08c379a000000000000000000000000000000000000000000000000000000000815260040161406290618587565b60405180910390fd5b60019150509392505050565b60006001600460003273ffffffffffffffffffffffffffffffffffffffff1673ffffffffffffffffffffffffffffffffffffffff16815260200190815260200160002060009054906101000a900460ff1660ff16146140d557600080fd5b853273ffffffffffffffffffffffffffffffffffffffff16600660008373ffffffffffffffffffffffffffffffffffffffff1673ffffffffffffffffffffffffffffffffffffffff16815260200190815260200160002060030160009054906101000a900473ffffffffffffffffffffffffffffffffffffffff1673ffffffffffffffffffffffffffffffffffffffff161461417057600080fd5b600061417c8885616ca1565b90508015614a5157600660008973ffffffffffffffffffffffffffffffffffffffff1673ffffffffffffffffffffffffffffffffffffffff168152602001908152602001600020600c6000820160009054906101000a900463ffffffff168160000160006101000a81548163ffffffff021916908363ffffffff1602179055506000820160049054906101000a900463ffffffff168160000160046101000a81548163ffffffff021916908363ffffffff1602179055506001820181600101908054600181600116156101000203166002900461425a929190617990565b5060028201816002019080546001816001161561010002031660029004614282929190617990565b506003820160009054906101000a900473ffffffffffffffffffffffffffffffffffffffff168160030160006101000a81548173ffffffffffffffffffffffffffffffffffffffff021916908373ffffffffffffffffffffffffffffffffffffffff1602179055506004820160009054906101000a900473ffffffffffffffffffffffffffffffffffffffff168160040160006101000a81548173ffffffffffffffffffffffffffffffffffffffff021916908373ffffffffffffffffffffffffffffffffffffffff16021790555060058201548160050155600682015481600601556007820160009054906101000a900463ffffffff168160070160006101000a81548163ffffffff021916908363ffffffff1602179055506007820160049054906101000a900463ffffffff168160070160046101000a81548163ffffffff021916908363ffffffff160217905550600882018160080190805460018160011615610100020316600290046143fa929190617990565b506009820160009054906101000a900460ff168160090160006101000a81548160ff0219169083151502179055509050506040518060400160405280601c81526020017f496e205472616e7369742066726f6d204d616e75666163747572657200000000815250600c6008019080519060200190614479929190617a17565b5084600c60040160006101000a81548173ffffffffffffffffffffffffffffffffffffffff021916908373ffffffffffffffffffffffffffffffffffffffff16021790555086601c60000190805190602001906144d7929190617a17565b5085601c60010190805190602001906144f1929190617a17565b5084601c60020160006101000a81548173ffffffffffffffffffffffffffffffffffffffff021916908373ffffffffffffffffffffffffffffffffffffffff16021790555083601c60020160146101000a81548163ffffffff021916908363ffffffff16021790555042601c600301819055506040518060400160405280600481526020017f476f6f6400000000000000000000000000000000000000000000000000000000815250601c60040190805190602001906145b2929190617a17565b50601c600860008a73ffffffffffffffffffffffffffffffffffffffff1673ffffffffffffffffffffffffffffffffffffffff1681526020019081526020016000206000820181600001908054600181600116156101000203166002900461461b929190617990565b5060018201816001019080546001816001161561010002031660029004614643929190617990565b506002820160009054906101000a900473ffffffffffffffffffffffffffffffffffffffff168160020160006101000a81548173ffffffffffffffffffffffffffffffffffffffff021916908373ffffffffffffffffffffffffffffffffffffffff1602179055506002820160149054906101000a900463ffffffff168160020160146101000a81548163ffffffff021916908363ffffffff1602179055506003820154816003015560048201816004019080546001816001161561010002031660029004614713929190617990565b50905050600c600660008a73ffffffffffffffffffffffffffffffffffffffff1673ffffffffffffffffffffffffffffffffffffffff1681526020019081526020016000206000820160009054906101000a900463ffffffff168160000160006101000a81548163ffffffff021916908363ffffffff1602179055506000820160049054906101000a900463ffffffff168160000160046101000a81548163ffffffff021916908363ffffffff160217905550600182018160010190805460018160011615610100020316600290046147ed929190617990565b5060028201816002019080546001816001161561010002031660029004614815929190617990565b506003820160009054906101000a900473ffffffffffffffffffffffffffffffffffffffff168160030160006101000a81548173ffffffffffffffffffffffffffffffffffffffff021916908373ffffffffffffffffffffffffffffffffffffffff1602179055506004820160009054906101000a900473ffffffffffffffffffffffffffffffffffffffff168160040160006101000a81548173ffffffffffffffffffffffffffffffffffffffff021916908373ffffffffffffffffffffffffffffffffffffffff16021790555060058201548160050155600682015481600601556007820160009054906101000a900463ffffffff168160070160006101000a81548163ffffffff021916908363ffffffff1602179055506007820160049054906101000a900463ffffffff168160070160046101000a81548163ffffffff021916908363ffffffff1602179055506008820181600801908054600181600116156101000203166002900461498d929190617990565b506009820160009054906101000a900460ff168160090160006101000a81548160ff0219169083151502179055509050506040518060400160405280600b81526020017f4469737472696275746f72000000000000000000000000000000000000000000815250600560008a73ffffffffffffffffffffffffffffffffffffffff1673ffffffffffffffffffffffffffffffffffffffff1681526020019081526020016000209080519060200190614a46929190617a17565b506001925050614a57565b60009250505b5095945050505050565b6008602052806000526040600020600091509050806000018054600181600116156101000203166002900480601f016020809104026020016040519081016040528092919081815260200182805460018160011615610100020316600290048015614b0d5780601f10614ae257610100808354040283529160200191614b0d565b820191906000526020600020905b815481529060010190602001808311614af057829003601f168201915b505050505090806001018054600181600116156101000203166002900480601f016020809104026020016040519081016040528092919081815260200182805460018160011615610100020316600290048015614bab5780601f10614b8057610100808354040283529160200191614bab565b820191906000526020600020905b815481529060010190602001808311614b8e57829003601f168201915b5050505050908060020160009054906101000a900473ffffffffffffffffffffffffffffffffffffffff16908060020160149054906101000a900463ffffffff1690806003015490806004018054600181600116156101000203166002900480601f016020809104026020016040519081016040528092919081815260200182805460018160011615610100020316600290048015614c8b5780601f10614c6057610100808354040283529160200191614c8b565b820191906000526020600020905b815481529060010190602001808311614c6e57829003601f168201915b5050505050905086565b60006001600460003273ffffffffffffffffffffffffffffffffffffffff1673ffffffffffffffffffffffffffffffffffffffff16815260200190815260200160002060009054906101000a900460ff1660ff1614614cf357600080fd5b843273ffffffffffffffffffffffffffffffffffffffff16600660008373ffffffffffffffffffffffffffffffffffffffff1673ffffffffffffffffffffffffffffffffffffffff16815260200190815260200160002060040160009054906101000a900473ffffffffffffffffffffffffffffffffffffffff1673ffffffffffffffffffffffffffffffffffffffff1614614d8e57600080fd5b6000614d9a8785616ca1565b905080156155c557600660008873ffffffffffffffffffffffffffffffffffffffff1673ffffffffffffffffffffffffffffffffffffffff168152602001908152602001600020600c6000820160009054906101000a900463ffffffff168160000160006101000a81548163ffffffff021916908363ffffffff1602179055506000820160049054906101000a900463ffffffff168160000160046101000a81548163ffffffff021916908363ffffffff16021790555060018201816001019080546001816001161561010002031660029004614e78929190617990565b5060028201816002019080546001816001161561010002031660029004614ea0929190617990565b506003820160009054906101000a900473ffffffffffffffffffffffffffffffffffffffff168160030160006101000a81548173ffffffffffffffffffffffffffffffffffffffff021916908373ffffffffffffffffffffffffffffffffffffffff1602179055506004820160009054906101000a900473ffffffffffffffffffffffffffffffffffffffff168160040160006101000a81548173ffffffffffffffffffffffffffffffffffffffff021916908373ffffffffffffffffffffffffffffffffffffffff16021790555060058201548160050155600682015481600601556007820160009054906101000a900463ffffffff168160070160006101000a81548163ffffffff021916908363ffffffff1602179055506007820160049054906101000a900463ffffffff168160070160046101000a81548163ffffffff021916908363ffffffff16021790555060088201816008019080546001816001161561010002031660029004615018929190617990565b506009820160009054906101000a900460ff168160090160006101000a81548160ff0219169083151502179055509050506000600c60040160006101000a81548173ffffffffffffffffffffffffffffffffffffffff021916908373ffffffffffffffffffffffffffffffffffffffff1602179055506040518060400160405280601481526020017f526563656976656420627920506861726d616379000000000000000000000000815250600c60080190805190602001906150dc929190617a17565b5085602f60000190805190602001906150f6929190617a17565b5084602f6001019080519060200190615110929190617a17565b5083602f60020160006101000a81548163ffffffff021916908363ffffffff1602179055506040518060400160405280600481526020017f476f6f6400000000000000000000000000000000000000000000000000000000815250602f6003019080519060200190615183929190617a17565b5042602f60040181905550602f600b60008973ffffffffffffffffffffffffffffffffffffffff1673ffffffffffffffffffffffffffffffffffffffff168152602001908152602001600020600082018160000190805460018160011615610100020316600290046151f6929190617990565b506001820181600101908054600181600116156101000203166002900461521e929190617990565b506002820160009054906101000a900463ffffffff168160020160006101000a81548163ffffffff021916908363ffffffff1602179055506003820181600301908054600181600116156101000203166002900461527d929190617990565b50600482015481600401559050506040518060400160405280600481526020017f444f4e4500000000000000000000000000000000000000000000000000000000815250600560008973ffffffffffffffffffffffffffffffffffffffff1673ffffffffffffffffffffffffffffffffffffffff1681526020019081526020016000209080519060200190615313929190617a17565b50600c600660008973ffffffffffffffffffffffffffffffffffffffff1673ffffffffffffffffffffffffffffffffffffffff1681526020019081526020016000206000820160009054906101000a900463ffffffff168160000160006101000a81548163ffffffff021916908363ffffffff1602179055506000820160049054906101000a900463ffffffff168160000160046101000a81548163ffffffff021916908363ffffffff160217905550600182018160010190805460018160011615610100020316600290046153ea929190617990565b5060028201816002019080546001816001161561010002031660029004615412929190617990565b506003820160009054906101000a900473ffffffffffffffffffffffffffffffffffffffff168160030160006101000a81548173ffffffffffffffffffffffffffffffffffffffff021916908373ffffffffffffffffffffffffffffffffffffffff1602179055506004820160009054906101000a900473ffffffffffffffffffffffffffffffffffffffff168160040160006101000a81548173ffffffffffffffffffffffffffffffffffffffff021916908373ffffffffffffffffffffffffffffffffffffffff16021790555060058201548160050155600682015481600601556007820160009054906101000a900463ffffffff168160070160006101000a81548163ffffffff021916908363ffffffff1602179055506007820160049054906101000a900463ffffffff168160070160046101000a81548163ffffffff021916908363ffffffff1602179055506008820181600801908054600181600116156101000203166002900461558a929190617990565b506009820160009054906101000a900460ff168160090160006101000a81548160ff02191690831515021790555090505060019250506155cb565b60009250505b50949350505050565b600181815481106155e157fe5b906000526020600020016000915054906101000a900473ffffffffffffffffffffffffffffffffffffffff1681565b60006001600460003273ffffffffffffffffffffffffffffffffffffffff1673ffffffffffffffffffffffffffffffffffffffff16815260200190815260200160002060009054906101000a900460ff1660ff161461566e57600080fd5b843273ffffffffffffffffffffffffffffffffffffffff16600660008373ffffffffffffffffffffffffffffffffffffffff1673ffffffffffffffffffffffffffffffffffffffff16815260200190815260200160002060040160009054906101000a900473ffffffffffffffffffffffffffffffffffffffff1673ffffffffffffffffffffffffffffffffffffffff161461570957600080fd5b60006157158785616ca1565b90508015615fe857600660008873ffffffffffffffffffffffffffffffffffffffff1673ffffffffffffffffffffffffffffffffffffffff168152602001908152602001600020600c6000820160009054906101000a900463ffffffff168160000160006101000a81548163ffffffff021916908363ffffffff1602179055506000820160049054906101000a900463ffffffff168160000160046101000a81548163ffffffff021916908363ffffffff160217905550600182018160010190805460018160011615610100020316600290046157f3929190617990565b506002820181600201908054600181600116156101000203166002900461581b929190617990565b506003820160009054906101000a900473ffffffffffffffffffffffffffffffffffffffff168160030160006101000a81548173ffffffffffffffffffffffffffffffffffffffff021916908373ffffffffffffffffffffffffffffffffffffffff1602179055506004820160009054906101000a900473ffffffffffffffffffffffffffffffffffffffff168160040160006101000a81548173ffffffffffffffffffffffffffffffffffffffff021916908373ffffffffffffffffffffffffffffffffffffffff16021790555060058201548160050155600682015481600601556007820160009054906101000a900463ffffffff168160070160006101000a81548163ffffffff021916908363ffffffff1602179055506007820160049054906101000a900463ffffffff168160070160046101000a81548163ffffffff021916908363ffffffff16021790555060088201816008019080546001816001161561010002031660029004615993929190617990565b506009820160009054906101000a900460ff168160090160006101000a81548160ff0219169083151502179055509050506000600c60040160006101000a81548173ffffffffffffffffffffffffffffffffffffffff021916908373ffffffffffffffffffffffffffffffffffffffff1602179055508560286000019080519060200190615a22929190617a17565b508460286001019080519060200190615a3c929190617a17565b5083602860020160006101000a81548163ffffffff021916908363ffffffff160217905550426028600301819055506040518060400160405280600481526020017f476f6f640000000000000000000000000000000000000000000000000000000081525060286006019080519060200190615ab9929190617a17565b506028600a60008973ffffffffffffffffffffffffffffffffffffffff1673ffffffffffffffffffffffffffffffffffffffff16815260200190815260200160002060008201816000019080546001816001161561010002031660029004615b22929190617990565b5060018201816001019080546001816001161561010002031660029004615b4a929190617990565b506002820160009054906101000a900463ffffffff168160020160006101000a81548163ffffffff021916908363ffffffff1602179055506002820160049054906101000a900463ffffffff168160020160046101000a81548163ffffffff021916908363ffffffff16021790555060038201548160030155600482015481600401556005820160009054906101000a900473ffffffffffffffffffffffffffffffffffffffff168160050160006101000a81548173ffffffffffffffffffffffffffffffffffffffff021916908373ffffffffffffffffffffffffffffffffffffffff16021790555060068201816006019080546001816001161561010002031660029004615c5b929190617990565b5090505032600c60030160006101000a81548173ffffffffffffffffffffffffffffffffffffffff021916908373ffffffffffffffffffffffffffffffffffffffff1602179055506000600c60040160006101000a81548173ffffffffffffffffffffffffffffffffffffffff021916908373ffffffffffffffffffffffffffffffffffffffff1602179055506040518060400160405280601681526020017f52656365697665642062792057686f6c6573616c657200000000000000000000815250600c6008019080519060200190615d36929190617a17565b50600c600660008973ffffffffffffffffffffffffffffffffffffffff1673ffffffffffffffffffffffffffffffffffffffff1681526020019081526020016000206000820160009054906101000a900463ffffffff168160000160006101000a81548163ffffffff021916908363ffffffff1602179055506000820160049054906101000a900463ffffffff168160000160046101000a81548163ffffffff021916908363ffffffff16021790555060018201816001019080546001816001161561010002031660029004615e0d929190617990565b5060028201816002019080546001816001161561010002031660029004615e35929190617990565b506003820160009054906101000a900473ffffffffffffffffffffffffffffffffffffffff168160030160006101000a81548173ffffffffffffffffffffffffffffffffffffffff021916908373ffffffffffffffffffffffffffffffffffffffff1602179055506004820160009054906101000a900473ffffffffffffffffffffffffffffffffffffffff168160040160006101000a81548173ffffffffffffffffffffffffffffffffffffffff021916908373ffffffffffffffffffffffffffffffffffffffff16021790555060058201548160050155600682015481600601556007820160009054906101000a900463ffffffff168160070160006101000a81548163ffffffff021916908363ffffffff1602179055506007820160049054906101000a900463ffffffff168160070160046101000a81548163ffffffff021916908363ffffffff16021790555060088201816008019080546001816001161561010002031660029004615fad929190617990565b506009820160009054906101000a900460ff168160090160006101000a81548160ff0219169083151502179055509050506001925050615fee565b60009250505b50949350505050565b60006001600460003273ffffffffffffffffffffffffffffffffffffffff1673ffffffffffffffffffffffffffffffffffffffff16815260200190815260200160002060009054906101000a900460ff1660ff161461605557600080fd5b833273ffffffffffffffffffffffffffffffffffffffff16600660008373ffffffffffffffffffffffffffffffffffffffff1673ffffffffffffffffffffffffffffffffffffffff16815260200190815260200160002060030160009054906101000a900473ffffffffffffffffffffffffffffffffffffffff1673ffffffffffffffffffffffffffffffffffffffff16146160f057600080fd5b60006160fc8686616ca1565b905080156169de57600660008773ffffffffffffffffffffffffffffffffffffffff1673ffffffffffffffffffffffffffffffffffffffff168152602001908152602001600020600c6000820160009054906101000a900463ffffffff168160000160006101000a81548163ffffffff021916908363ffffffff1602179055506000820160049054906101000a900463ffffffff168160000160046101000a81548163ffffffff021916908363ffffffff160217905550600182018160010190805460018160011615610100020316600290046161da929190617990565b5060028201816002019080546001816001161561010002031660029004616202929190617990565b506003820160009054906101000a900473ffffffffffffffffffffffffffffffffffffffff168160030160006101000a81548173ffffffffffffffffffffffffffffffffffffffff021916908373ffffffffffffffffffffffffffffffffffffffff1602179055506004820160009054906101000a900473ffffffffffffffffffffffffffffffffffffffff168160040160006101000a81548173ffffffffffffffffffffffffffffffffffffffff021916908373ffffffffffffffffffffffffffffffffffffffff16021790555060058201548160050155600682015481600601556007820160009054906101000a900463ffffffff168160070160006101000a81548163ffffffff021916908363ffffffff1602179055506007820160049054906101000a900463ffffffff168160070160046101000a81548163ffffffff021916908363ffffffff1602179055506008820181600801908054600181600116156101000203166002900461637a929190617990565b506009820160009054906101000a900460ff168160090160006101000a81548160ff0219169083151502179055509050506040518060400160405280601a81526020017f496e205472616e7369742066726f6d2057686f6c6573616c6572000000000000815250600c60080190805190602001906163f9929190617a17565b5083600c60040160006101000a81548173ffffffffffffffffffffffffffffffffffffffff021916908373ffffffffffffffffffffffffffffffffffffffff16021790555084602860020160046101000a81548163ffffffff021916908363ffffffff1602179055504260286004018190555083602860050160006101000a81548173ffffffffffffffffffffffffffffffffffffffff021916908373ffffffffffffffffffffffffffffffffffffffff1602179055506040518060400160405280600481526020017f476f6f6400000000000000000000000000000000000000000000000000000000815250602860060190805190602001906164fe929190617a17565b506028600a60008873ffffffffffffffffffffffffffffffffffffffff1673ffffffffffffffffffffffffffffffffffffffff16815260200190815260200160002060008201816000019080546001816001161561010002031660029004616567929190617990565b506001820181600101908054600181600116156101000203166002900461658f929190617990565b506002820160009054906101000a900463ffffffff168160020160006101000a81548163ffffffff021916908363ffffffff1602179055506002820160049054906101000a900463ffffffff168160020160046101000a81548163ffffffff021916908363ffffffff16021790555060038201548160030155600482015481600401556005820160009054906101000a900473ffffffffffffffffffffffffffffffffffffffff168160050160006101000a81548173ffffffffffffffffffffffffffffffffffffffff021916908373ffffffffffffffffffffffffffffffffffffffff160217905550600682018160060190805460018160011615610100020316600290046166a0929190617990565b509050506040518060400160405280600881526020017f506861726d616379000000000000000000000000000000000000000000000000815250600560008873ffffffffffffffffffffffffffffffffffffffff1673ffffffffffffffffffffffffffffffffffffffff168152602001908152602001600020908051906020019061672c929190617a17565b50600c600660008873ffffffffffffffffffffffffffffffffffffffff1673ffffffffffffffffffffffffffffffffffffffff1681526020019081526020016000206000820160009054906101000a900463ffffffff168160000160006101000a81548163ffffffff021916908363ffffffff1602179055506000820160049054906101000a900463ffffffff168160000160046101000a81548163ffffffff021916908363ffffffff16021790555060018201816001019080546001816001161561010002031660029004616803929190617990565b506002820181600201908054600181600116156101000203166002900461682b929190617990565b506003820160009054906101000a900473ffffffffffffffffffffffffffffffffffffffff168160030160006101000a81548173ffffffffffffffffffffffffffffffffffffffff021916908373ffffffffffffffffffffffffffffffffffffffff1602179055506004820160009054906101000a900473ffffffffffffffffffffffffffffffffffffffff168160040160006101000a81548173ffffffffffffffffffffffffffffffffffffffff021916908373ffffffffffffffffffffffffffffffffffffffff16021790555060058201548160050155600682015481600601556007820160009054906101000a900463ffffffff168160070160006101000a81548163ffffffff021916908363ffffffff1602179055506007820160049054906101000a900463ffffffff168160070160046101000a81548163ffffffff021916908363ffffffff160217905550600882018160080190805460018160011615610100020316600290046169a3929190617990565b506009820160009054906101000a900460ff168160090160006101000a81548160ff02191690831515021790555090505060019250506169e4565b60009250505b509392505050565b60066020528060005260406000206000915090508060000160009054906101000a900463ffffffff16908060000160049054906101000a900463ffffffff1690806001018054600181600116156101000203166002900480601f016020809104026020016040519081016040528092919081815260200182805460018160011615610100020316600290048015616ac45780601f10616a9957610100808354040283529160200191616ac4565b820191906000526020600020905b815481529060010190602001808311616aa757829003601f168201915b505050505090806002018054600181600116156101000203166002900480601f016020809104026020016040519081016040528092919081815260200182805460018160011615610100020316600290048015616b625780601f10616b3757610100808354040283529160200191616b62565b820191906000526020600020905b815481529060010190602001808311616b4557829003601f168201915b5050505050908060030160009054906101000a900473ffffffffffffffffffffffffffffffffffffffff16908060040160009054906101000a900473ffffffffffffffffffffffffffffffffffffffff16908060050154908060060154908060070160009054906101000a900463ffffffff16908060070160049054906101000a900463ffffffff1690806008018054600181600116156101000203166002900480601f016020809104026020016040519081016040528092919081815260200182805460018160011615610100020316600290048015616c845780601f10616c5957610100808354040283529160200191616c84565b820191906000526020600020905b815481529060010190602001808311616c6757829003601f168201915b5050505050908060090160009054906101000a900460ff1690508c565b6000600660008473ffffffffffffffffffffffffffffffffffffffff1673ffffffffffffffffffffffffffffffffffffffff16815260200190815260200160002060090160009054906101000a900460ff1615616cfd57600080fd5b600660008473ffffffffffffffffffffffffffffffffffffffff1673ffffffffffffffffffffffffffffffffffffffff168152602001908152602001600020600c6000820160009054906101000a900463ffffffff168160000160006101000a81548163ffffffff021916908363ffffffff1602179055506000820160049054906101000a900463ffffffff168160000160046101000a81548163ffffffff021916908363ffffffff16021790555060018201816001019080546001816001161561010002031660029004616dd3929190617990565b5060028201816002019080546001816001161561010002031660029004616dfb929190617990565b506003820160009054906101000a900473ffffffffffffffffffffffffffffffffffffffff168160030160006101000a81548173ffffffffffffffffffffffffffffffffffffffff021916908373ffffffffffffffffffffffffffffffffffffffff1602179055506004820160009054906101000a900473ffffffffffffffffffffffffffffffffffffffff168160040160006101000a81548173ffffffffffffffffffffffffffffffffffffffff021916908373ffffffffffffffffffffffffffffffffffffffff16021790555060058201548160050155600682015481600601556007820160009054906101000a900463ffffffff168160070160006101000a81548163ffffffff021916908363ffffffff1602179055506007820160049054906101000a900463ffffffff168160070160046101000a81548163ffffffff021916908363ffffffff16021790555060088201816008019080546001816001161561010002031660029004616f73929190617990565b506009820160009054906101000a900460ff168160090160006101000a81548160ff02191690831515021790555090505081600c60070160006101000a81548163ffffffff021916908363ffffffff160217905550600c60070160049054906101000a900463ffffffff1663ffffffff168263ffffffff16111561730e576001600c60090160006101000a81548160ff0219169083151502179055506040518060400160405280601a81526020017f457863656564656420696465616c2074656d7065726174757265000000000000815250600c600801908051906020019061705d929190617a17565b50600c600660008573ffffffffffffffffffffffffffffffffffffffff1673ffffffffffffffffffffffffffffffffffffffff1681526020019081526020016000206000820160009054906101000a900463ffffffff168160000160006101000a81548163ffffffff021916908363ffffffff1602179055506000820160049054906101000a900463ffffffff168160000160046101000a81548163ffffffff021916908363ffffffff16021790555060018201816001019080546001816001161561010002031660029004617134929190617990565b506002820181600201908054600181600116156101000203166002900461715c929190617990565b506003820160009054906101000a900473ffffffffffffffffffffffffffffffffffffffff168160030160006101000a81548173ffffffffffffffffffffffffffffffffffffffff021916908373ffffffffffffffffffffffffffffffffffffffff1602179055506004820160009054906101000a900473ffffffffffffffffffffffffffffffffffffffff168160040160006101000a81548173ffffffffffffffffffffffffffffffffffffffff021916908373ffffffffffffffffffffffffffffffffffffffff16021790555060058201548160050155600682015481600601556007820160009054906101000a900463ffffffff168160070160006101000a81548163ffffffff021916908363ffffffff1602179055506007820160049054906101000a900463ffffffff168160070160046101000a81548163ffffffff021916908363ffffffff160217905550600882018160080190805460018160011615610100020316600290046172d4929190617990565b506009820160009054906101000a900460ff168160090160006101000a81548160ff021916908315150217905550905050600090506178e3565b42600c6006015411617637576001600c60090160006101000a81548160ff0219169083151502179055506040518060400160405280600c81526020017f4472756720457870697265640000000000000000000000000000000000000000815250600c6008019080519060200190617386929190617a17565b50600c600660008573ffffffffffffffffffffffffffffffffffffffff1673ffffffffffffffffffffffffffffffffffffffff1681526020019081526020016000206000820160009054906101000a900463ffffffff168160000160006101000a81548163ffffffff021916908363ffffffff1602179055506000820160049054906101000a900463ffffffff168160000160046101000a81548163ffffffff021916908363ffffffff1602179055506001820181600101908054600181600116156101000203166002900461745d929190617990565b5060028201816002019080546001816001161561010002031660029004617485929190617990565b506003820160009054906101000a900473ffffffffffffffffffffffffffffffffffffffff168160030160006101000a81548173ffffffffffffffffffffffffffffffffffffffff021916908373ffffffffffffffffffffffffffffffffffffffff1602179055506004820160009054906101000a900473ffffffffffffffffffffffffffffffffffffffff168160040160006101000a81548173ffffffffffffffffffffffffffffffffffffffff021916908373ffffffffffffffffffffffffffffffffffffffff16021790555060058201548160050155600682015481600601556007820160009054906101000a900463ffffffff168160070160006101000a81548163ffffffff021916908363ffffffff1602179055506007820160049054906101000a900463ffffffff168160070160046101000a81548163ffffffff021916908363ffffffff160217905550600882018160080190805460018160011615610100020316600290046175fd929190617990565b506009820160009054906101000a900460ff168160090160006101000a81548160ff021916908315150217905550905050600090506178e3565b600c600660008573ffffffffffffffffffffffffffffffffffffffff1673ffffffffffffffffffffffffffffffffffffffff1681526020019081526020016000206000820160009054906101000a900463ffffffff168160000160006101000a81548163ffffffff021916908363ffffffff1602179055506000820160049054906101000a900463ffffffff168160000160046101000a81548163ffffffff021916908363ffffffff1602179055506001820181600101908054600181600116156101000203166002900461770d929190617990565b5060028201816002019080546001816001161561010002031660029004617735929190617990565b506003820160009054906101000a900473ffffffffffffffffffffffffffffffffffffffff168160030160006101000a81548173ffffffffffffffffffffffffffffffffffffffff021916908373ffffffffffffffffffffffffffffffffffffffff1602179055506004820160009054906101000a900473ffffffffffffffffffffffffffffffffffffffff168160040160006101000a81548173ffffffffffffffffffffffffffffffffffffffff021916908373ffffffffffffffffffffffffffffffffffffffff16021790555060058201548160050155600682015481600601556007820160009054906101000a900463ffffffff168160070160006101000a81548163ffffffff021916908363ffffffff1602179055506007820160049054906101000a900463ffffffff168160070160046101000a81548163ffffffff021916908363ffffffff160217905550600882018160080190805460018160011615610100020316600290046178ad929190617990565b506009820160009054906101000a900460ff168160090160006101000a81548160ff021916908315150217905550905050600190505b92915050565b604051806101800160405280600063ffffffff168152602001600063ffffffff1681526020016060815260200160608152602001600073ffffffffffffffffffffffffffffffffffffffff168152602001600073ffffffffffffffffffffffffffffffffffffffff1681526020016000815260200160008152602001600063ffffffff168152602001600063ffffffff168152602001606081526020016000151581525090565b828054600181600116156101000203166002900490600052602060002090601f016020900481019282601f106179c95780548555617a06565b82800160010185558215617a0657600052602060002091601f016020900482015b82811115617a055782548255916001019190600101906179ea565b5b509050617a139190617acf565b5090565b828054600181600116156101000203166002900490600052602060002090601f016020900481019282601f10617a5857805160ff1916838001178555617a86565b82800160010185558215617a86579182015b82811115617a85578251825591602001919060010190617a6a565b5b509050617a939190617acf565b5090565b6040518060c0016040528060608152602001606081526020016000151581526020016060815260200160608152602001606081525090565b617af191905b80821115617aed576000816000905550600101617ad5565b5090565b90565b600081359050617b03816188c8565b92915050565b600081359050617b18816188df565b92915050565b600082601f830112617b2f57600080fd5b8135617b42617b3d82618739565b61870c565b91508082526020830160208301858383011115617b5e57600080fd5b617b6983828461883a565b50505092915050565b600081359050617b81816188f6565b92915050565b600081359050617b968161890d565b92915050565b600060208284031215617bae57600080fd5b6000617bbc84828501617af4565b91505092915050565b600080600080600060a08688031215617bdd57600080fd5b6000617beb88828901617af4565b955050602086013567ffffffffffffffff811115617c0857600080fd5b617c1488828901617b1e565b945050604086013567ffffffffffffffff811115617c3157600080fd5b617c3d88828901617b1e565b9350506060617c4e88828901617af4565b9250506080617c5f88828901617b87565b9150509295509295909350565b600080600080600080600080610100898b031215617c8957600080fd5b6000617c978b828c01617af4565b985050602089013567ffffffffffffffff811115617cb457600080fd5b617cc08b828c01617b1e565b975050604089013567ffffffffffffffff811115617cdd57600080fd5b617ce98b828c01617b1e565b965050606089013567ffffffffffffffff811115617d0657600080fd5b617d128b828c01617b1e565b955050608089013567ffffffffffffffff811115617d2f57600080fd5b617d3b8b828c01617b1e565b94505060a089013567ffffffffffffffff811115617d5857600080fd5b617d648b828c01617b1e565b93505060c089013567ffffffffffffffff811115617d8157600080fd5b617d8d8b828c01617b1e565b92505060e0617d9e8b828c01617b09565b9150509295985092959890939650565b60008060008060808587031215617dc457600080fd5b6000617dd287828801617af4565b945050602085013567ffffffffffffffff811115617def57600080fd5b617dfb87828801617b1e565b935050604085013567ffffffffffffffff811115617e1857600080fd5b617e2487828801617b1e565b9250506060617e3587828801617b87565b91505092959194509250565b600080600060608486031215617e5657600080fd5b6000617e6486828701617af4565b9350506020617e7586828701617b87565b9250506040617e8686828701617af4565b9150509250925092565b600080600060608486031215617ea557600080fd5b600084013567ffffffffffffffff811115617ebf57600080fd5b617ecb86828701617b1e565b935050602084013567ffffffffffffffff811115617ee857600080fd5b617ef486828701617b1e565b9250506040617f0586828701617af4565b9150509250925092565b600060208284031215617f2157600080fd5b6000617f2f84828501617b72565b91505092915050565b600080600080600080600080610100898b031215617f5557600080fd5b6000617f638b828c01617b87565b9850506020617f748b828c01617b87565b975050604089013567ffffffffffffffff811115617f9157600080fd5b617f9d8b828c01617b1e565b965050606089013567ffffffffffffffff811115617fba57600080fd5b617fc68b828c01617b1e565b9550506080617fd78b828c01617b72565b94505060a0617fe88b828c01617b72565b93505060c0617ff98b828c01617b87565b92505060e061800a8b828c01617b87565b9150509295985092959890939650565b60006180268383618049565b60208301905092915050565b61804361803e826187e2565b61887c565b82525050565b618052816187d0565b82525050565b618061816187d0565b82525050565b600061807282618775565b61807c81856187a3565b935061808783618765565b8060005b838110156180b857815161809f888261801a565b97506180aa83618796565b92505060018101905061808b565b5085935050505092915050565b6180ce816187f4565b82525050565b60006180df8261878b565b6180e981856187b4565b93506180f9818560208601618849565b618102816188aa565b840191505092915050565b60006181188261878b565b61812281856187c5565b9350618132818560208601618849565b80840191505092915050565b600061814982618780565b61815381856187b4565b9350618163818560208601618849565b61816c816188aa565b840191505092915050565b600061818282618780565b61818c81856187c5565b935061819c818560208601618849565b80840191505092915050565b60006181b56015836187b4565b91507f50617373776f726420697320496e636f727265637400000000000000000000006000830152602082019050919050565b60006181f56014836187b4565b91507f557365726e616d6520697320496e6176616c69640000000000000000000000006000830152602082019050919050565b61823181618820565b82525050565b61824861824382618820565b6188a0565b82525050565b6182578161882a565b82525050565b60006182698285618032565b6014820191506182798284618237565b6020820191508190509392505050565b60006182958284618177565b915081905092915050565b60006182ac828461810d565b915081905092915050565b60006020820190506182cc6000830184618058565b92915050565b600060c0820190506182e76000830189618058565b6182f46020830188618228565b6183016040830187618228565b61830e606083018661824e565b61831b608083018561824e565b61832860a0830184618058565b979650505050505050565b6000602082019050818103600083015261834d8184618067565b905092915050565b600060208201905061836a60008301846180c5565b92915050565b6000602082019050818103600083015261838a81846180d4565b905092915050565b600060c08201905081810360008301526183ac818961813e565b905081810360208301526183c0818861813e565b90506183cf6040830187618058565b6183dc606083018661824e565b6183e96080830185618228565b81810360a08301526183fb818461813e565b9050979650505050505050565b600060c0820190508181036000830152618422818961813e565b90508181036020830152618436818861813e565b905061844560408301876180c5565b8181036060830152618457818661813e565b9050818103608083015261846b818561813e565b905081810360a083015261847f818461813e565b9050979650505050505050565b600060a08201905081810360008301526184a6818861813e565b905081810360208301526184ba818761813e565b90506184c9604083018661824e565b81810360608301526184db818561813e565b90506184ea6080830184618228565b9695505050505050565b600061010082019050818103600083015261850f818b61813e565b90508181036020830152618523818a61813e565b9050618532604083018961824e565b61853f606083018861824e565b61854c6080830187618228565b61855960a0830186618228565b61856660c0830185618058565b81810360e0830152618578818461813e565b90509998505050505050505050565b600060208201905081810360008301526185a0816181a8565b9050919050565b600060208201905081810360008301526185c0816181e8565b9050919050565b600060c0820190506185dc600083018961824e565b6185e9602083018861824e565b81810360408301526185fb81876180d4565b9050818103606083015261860f81866180d4565b9050818103608083015261862381856180d4565b905061863260a08301846180c5565b979650505050505050565b600061018082019050618653600083018f61824e565b618660602083018e61824e565b8181036040830152618672818d61813e565b90508181036060830152618686818c61813e565b9050618695608083018b618058565b6186a260a083018a618058565b6186af60c0830189618228565b6186bc60e0830188618228565b6186ca61010083018761824e565b6186d861012083018661824e565b8181036101408301526186eb818561813e565b90506186fb6101608301846180c5565b9d9c50505050505050505050505050565b6000604051905081810181811067ffffffffffffffff8211171561872f57600080fd5b8060405250919050565b600067ffffffffffffffff82111561875057600080fd5b601f19601f8301169050602081019050919050565b6000819050602082019050919050565b600081519050919050565b600081519050919050565b600081519050919050565b6000602082019050919050565b600082825260208201905092915050565b600082825260208201905092915050565b600081905092915050565b60006187db82618800565b9050919050565b60006187ed82618800565b9050919050565b60008115159050919050565b600073ffffffffffffffffffffffffffffffffffffffff82169050919050565b6000819050919050565b600063ffffffff82169050919050565b82818337600083830152505050565b60005b8381101561886757808201518184015260208101905061884c565b83811115618876576000848401525b50505050565b60006188878261888e565b9050919050565b6000618899826188bb565b9050919050565b6000819050919050565b6000601f19601f8301169050919050565b60008160601b9050919050565b6188d1816187d0565b81146188dc57600080fd5b50565b6188e8816187f4565b81146188f357600080fd5b50565b6188ff81618820565b811461890a57600080fd5b50565b6189168161882a565b811461892157600080fd5b5056fea2646970667358221220b24d4bffd74cd0b2a8dd8593399447cc753c2e4b7df69383ad1df882161f285b64736f6c63430006020033",
  "source": "// SPDX-License-Identifier: UNLICENSED\npragma solidity ^0.6.2;\npragma experimental ABIEncoderV2;\n\ncontract SupplyChainStorage{\naddress public owner;\n    constructor() public{\n        owner = msg.sender;\n         authorizedCaller[msg.sender] = 1;\n    }\n    address[] public DrugKeyList ;\n    address[] public UserKeyList;\n    /* Events */\n    event AuthorizedCaller(address caller);\n    event DeAuthorizedCaller(address caller);\n\n    mapping(address => string) userRole;\n    mapping(address => uint8) authorizedCaller;\n      mapping (address => string) nextOwner;\n\n    \n    struct User{\n        string ParticipantName;\n        string contactNo;\n        bool isActive;\n        string UserName;\n        string userPassword;\n        string Email;\n     }\n\n\n    struct  Drug {\n        uint32 drugID;\n        uint32 batchID;\n        string drugName;\n        string Currentlocation;\n        address CurrentproductOwner;\n        address nextOwner;\n        uint mfgTimeStamp;\n        uint expTimeStamp;\n        uint32  CurrentTemperature;\n        uint32 IdealTemperature;\n        string status;\n        bool isBad;\n\n    }\n\n    struct Manufacturer{\n        string name;\n        string ManufacturerAddress;\n        address ExporterAddress;\n        uint32 ExportingTemparature;\n        uint256 ExportingDateTime;\n        string DrugStatus;\n    }\n\n    struct distributor{\n        string name;\n        string DistributorAddress;\n        uint32 ImportingTemparature;\n        uint32 ExportingTemparature;\n        uint256 ImportingDateTime;\n        uint256 ExportingDateTime;\n        address ExporterAddress;\n        string DrugStatus;\n    }\n\n    struct Wholesaler{\n        string name;\n        string WholesalerAddress;\n        uint32 ImportingTemparature;\n        uint32 ExportingTemparature;\n        uint256 ImportingDateTime;\n        uint256 ExportingDateTime;\n       address ExporterAddress;\n        string DrugStatus;\n    }\n\n    struct Pharmacy{\n\n        string PharmacyName;\n        string PharmacyAddress;\n        uint32 ImportingTemparature;\n        string DrugStatus;\n        uint256 ImportingDateTime;\n    }\n    mapping(address => Drug) public BatchDrugDetails;\n    mapping(address =>User) public BatchUserDetails;\n    mapping(address => Manufacturer) public BatchManufactureringDetails;\n    mapping(address =>distributor) public BatchdistributorDetails;\n    mapping(address =>Wholesaler) public BatchWholesalerDetails;\n    mapping(address =>Pharmacy) public BatchPharmacyDetails;\n\n\n        Drug DrugDetails;\n        User UserDetail;\n        Manufacturer ManufacturerDetails;\n        distributor distributorDetails;\n        Wholesaler WholesalerDetails;\n        Pharmacy PharmacyDetails;\n\n\n\n    // function getAllDrugDetails() public view returns(Drug[] memory){\n    //    Drug[] memory drugs;\n    //     for(uint i=0;i<DrugList.length;i++){\n    //     drugs[i] = BatchDrugDetails[DrugList[i]];\n    //     }\n    //     return drugs;\n    // }\n\n\n\n    function getUserRole(address _userAddress) public onlyAuthCaller view returns( string memory)\n    {\n        return userRole[_userAddress];\n    }\n\n    function getDrugKeyList() public view returns(address[] memory){\n        return DrugKeyList;\n    }\n    function getUserKeyList() public view returns(address[] memory){\n        return UserKeyList;\n    }\n   \n\n     function setUser(address  _userAddress,\n                     string memory _ParticipantName, \n                     string  memory _contactNo, \n                     string memory _role, \n                     string memory _UserName,\n                     string memory _UserPassword,\n                     string memory _Email,\n                     bool _isActive) public onlyOwner returns(bool){\n        \n        /*store data into struct*/\n        UserDetail.ParticipantName = _ParticipantName;\n        UserDetail.contactNo = _contactNo;\n        UserDetail.isActive = _isActive;\n        UserDetail.UserName = _UserName;\n        UserDetail.Email = _Email;\n        UserDetail.userPassword = _UserPassword;\n        authorizedCaller[_userAddress] = 1;\n        /*store data into mapping*/\n        BatchUserDetails[_userAddress] = UserDetail;\n        userRole[_userAddress] = _role;\n        UserKeyList.push(_userAddress);\n        return true;\n    }  \n    \n\n    function setDrugDetails(uint32 _drugID,\n        uint32 _batchID,\n        string memory _drugName,\n        string memory _Currentlocation,\n        uint _mfgTimeStamp,\n        uint _expTimeStamp,\n        uint32  _CurrentTemperature,\n        uint32 _IdealTemperature\n     ) public onlyOwner  returns(address){\n\n         uint tmpData = uint(keccak256(abi.encodePacked(msg.sender, block.timestamp )));\n        address SerialNumber = address(tmpData);\n         DrugKeyList.push(SerialNumber);//newly added\n        DrugDetails.drugID = _drugID;\n        DrugDetails.batchID = _batchID;\n        DrugDetails.drugName = _drugName;\n        DrugDetails.Currentlocation = _Currentlocation;\n        DrugDetails.CurrentproductOwner = tx.origin;\n        DrugDetails.mfgTimeStamp = _mfgTimeStamp;\n        DrugDetails.expTimeStamp = _expTimeStamp;\n        DrugDetails.CurrentTemperature = _CurrentTemperature;\n        DrugDetails.IdealTemperature = _IdealTemperature;\n        DrugDetails.status = \"Good\";\n        DrugDetails.nextOwner = address(0);\n        nextOwner[SerialNumber] = \"Manufacturer\";\n        BatchDrugDetails[SerialNumber] = DrugDetails;\n        return SerialNumber;\n\n    }\n\n\n /*Set ManufacturerDetails*/\n    function MoveFromManufacturer(address _SerialNumber,\n                             string memory _name,\n                             string memory _ManufacturerAddress,\n                             address  _ExporterAddress,\n                             uint32  _ExportingTemparature\n                             )public onlyAuthCaller onlyDrugOwner(_SerialNumber)  returns(bool){      \n                bool good =  isBad(_SerialNumber,_ExportingTemparature);\n           if(good){   \n                DrugDetails = BatchDrugDetails[_SerialNumber];      \n                     DrugDetails.status = \"In Transit from Manufacturer\";   \n                     DrugDetails.nextOwner = _ExporterAddress;    \n         ManufacturerDetails.name = _name;\n         ManufacturerDetails.ManufacturerAddress = _ManufacturerAddress;\n         ManufacturerDetails.ExporterAddress = _ExporterAddress;\n         ManufacturerDetails.ExportingTemparature = _ExportingTemparature;\n         ManufacturerDetails.ExportingDateTime = block.timestamp;\n         ManufacturerDetails.DrugStatus = \"Good\";\n         BatchManufactureringDetails[_SerialNumber] = ManufacturerDetails;\n         BatchDrugDetails[_SerialNumber] = DrugDetails;\n          nextOwner[_SerialNumber] = 'Distributor'; \n        \n         return true;}\n         else{\n             return false;\n         }\n        }\n\n\n        function distributorReceving(address _SerialNumber, string memory _name,string memory _DistributorAddress,uint32 _ImportingTemparature) public onlyAuthCaller onlyDrugReceiver(_SerialNumber) returns(bool){\n            bool good =  isBad(_SerialNumber,_ImportingTemparature);\n            if(good){\n            DrugDetails = BatchDrugDetails[_SerialNumber];\n            distributorDetails.name = _name;\n            distributorDetails.DistributorAddress =  _DistributorAddress;\n            distributorDetails.ImportingTemparature = _ImportingTemparature;\n            distributorDetails.ImportingDateTime = block.timestamp;\n            \n            distributorDetails.DrugStatus = \"Good\";\n            BatchdistributorDetails[_SerialNumber] = distributorDetails;\n            DrugDetails.CurrentproductOwner = tx.origin;\n            DrugDetails.nextOwner = address(0);\n\n             DrugDetails.status = \"Received by Distributor\"; \n             BatchDrugDetails[_SerialNumber] = DrugDetails;\n             return true;\n            }\n            else{\n                return false;\n            }\n\n\n        }\n\n    function MoveFromDistributor(address _SerialNumber,\n        uint32 _ExportingTemparature, \n        address _ExporterAddress\n        ) public onlyAuthCaller onlyDrugOwner(_SerialNumber)returns(bool){\n           \n           bool good =  isBad(_SerialNumber,_ExportingTemparature);\n           if(good){\n               DrugDetails = BatchDrugDetails[_SerialNumber];      \n                     DrugDetails.status = \"In Transit from Distributor\";  \n                     DrugDetails.nextOwner = _ExporterAddress;\n            distributorDetails.ExportingTemparature = _ExportingTemparature;\n            distributorDetails.ExportingDateTime = block.timestamp;\n            distributorDetails.ExporterAddress = _ExporterAddress;\n            distributorDetails.DrugStatus = \"Good\";\n            BatchdistributorDetails[_SerialNumber] = distributorDetails;\n             nextOwner[_SerialNumber] = 'Wholesaler'; \n             BatchDrugDetails[_SerialNumber] = DrugDetails;\n                \n            return true; \n           }\n           else{\n               return false;\n           }\n        }\n\n         function WholeSalerReceving(address _SerialNumber, string memory _name,string memory _DistributorAddress,uint32 _ImportingTemparature) public onlyAuthCaller onlyDrugReceiver(_SerialNumber) returns(bool){\n            bool good =  isBad(_SerialNumber,_ImportingTemparature);\n            if(good){\n            DrugDetails = BatchDrugDetails[_SerialNumber];\n             DrugDetails.nextOwner = address(0);   \n            WholesalerDetails.name = _name;\n            WholesalerDetails.WholesalerAddress =  _DistributorAddress;\n            WholesalerDetails.ImportingTemparature = _ImportingTemparature;\n            WholesalerDetails.ImportingDateTime = block.timestamp;\n            \n            WholesalerDetails.DrugStatus = \"Good\";\n            BatchWholesalerDetails[_SerialNumber] = WholesalerDetails;\n            DrugDetails.CurrentproductOwner = tx.origin;\n             DrugDetails.nextOwner = address(0);\n             DrugDetails.status = \"Received by Wholesaler\"; \n             BatchDrugDetails[_SerialNumber] = DrugDetails;\n             return true;\n            }\n            else{\n                return false;\n            }\n\n\n        }\n\n\n\n function moveFromWholesaler(address _SerialNumber,\n        uint32 _ExportingTemparature,\n        address _ExporterAddress\n        ) public onlyAuthCaller onlyDrugOwner(_SerialNumber) returns(bool){\n               bool good =  isBad(_SerialNumber,_ExportingTemparature);\n           if(good){\n          DrugDetails = BatchDrugDetails[_SerialNumber];      \n                     DrugDetails.status = \"In Transit from Wholesaler\"; \n                     DrugDetails.nextOwner = _ExporterAddress;\n            WholesalerDetails.ExportingTemparature = _ExportingTemparature;\n            WholesalerDetails.ExportingDateTime = block.timestamp;\n            WholesalerDetails.ExporterAddress = _ExporterAddress;\n            WholesalerDetails.DrugStatus = \"Good\";\n            BatchWholesalerDetails[_SerialNumber] = WholesalerDetails;\n             nextOwner[_SerialNumber] = 'Pharmacy';\n             BatchDrugDetails[_SerialNumber] = DrugDetails;\n            return true; \n           }\n           else{\n               return false;\n           }\n        }\n\nfunction importToPharmacy(address _SerialNumber,\n        string memory _PharmacyName,\n        string memory _PharmacyAddress,\n        uint32 _ImportingTemparature) public onlyAuthCaller onlyDrugReceiver(_SerialNumber) returns(bool){\n               bool good =  isBad(_SerialNumber,_ImportingTemparature);\n           if(good){\n                  DrugDetails = BatchDrugDetails[_SerialNumber];\n             DrugDetails.nextOwner = address(0); \n            DrugDetails.status = \"Received by Pharmacy\";\n            PharmacyDetails.PharmacyName = _PharmacyName;\n            PharmacyDetails.PharmacyAddress = _PharmacyAddress;\n            PharmacyDetails.ImportingTemparature = _ImportingTemparature;\n            PharmacyDetails.DrugStatus = \"Good\";\n            PharmacyDetails.ImportingDateTime = block.timestamp;\n            BatchPharmacyDetails[_SerialNumber] = PharmacyDetails;\n             nextOwner[_SerialNumber] = 'DONE';\n             BatchDrugDetails[_SerialNumber] = DrugDetails;\n            return true;}\n            else{\n                return false;\n            }\n    \n}\n  \n\n    function getDrugDetails1(address _SerialNumber) public onlyAuthCaller view returns(uint32 _drugID,\n        uint32 _batchID,\n        string memory _drugName,\n        string memory _Currentlocation,\n         string memory _status,\n        bool _isBad\n       \n        ){\n\n        Drug memory tmpData = BatchDrugDetails[_SerialNumber];\n\n        return(tmpData.drugID,\n        tmpData.batchID,\n        tmpData.drugName,\n        tmpData.Currentlocation,\n        tmpData.status,\n        tmpData.isBad\n        \n       );\n        }\n\n\n\n    function getDrugDetails2(address _SerialNumber) public onlyAuthCaller view returns(\n        address _CurrentproductOwner,\n        uint _mfgTimeStamp,\n        uint _expTimeStamp,\n        uint32  _CurrentTemperature,\n        uint32 _IdealTemperature,\n        address _nextOwner\n        ){\n\n        Drug memory tmpData = BatchDrugDetails[_SerialNumber];\n\n        return(\n        tmpData.CurrentproductOwner,\n      \n        tmpData.mfgTimeStamp,\n        tmpData.expTimeStamp,\n        tmpData.CurrentTemperature,\n        tmpData.IdealTemperature,\n        tmpData.nextOwner);\n        }\n\n   function Authenticate(string memory _username,string memory _password,address _userAddress) public view returns(bool){\n       User memory user = BatchUserDetails[_userAddress];\n      require(keccak256(abi.encodePacked(user.UserName))== keccak256(abi.encodePacked(_username)),\"Username is Inavalid\");\n       require(keccak256(abi.encodePacked(user.userPassword))== keccak256(abi.encodePacked(_password)),\"Password is Incorrect\");\n       return true;\n   }\n\n\n        /* authorize caller */\n    function authorizeCaller(address _caller) public onlyAuthCaller returns(bool) \n    {\n        authorizedCaller[_caller] = 1;\n        emit AuthorizedCaller(_caller);\n        return true;\n    }\n        \n    /* deauthorize caller */\n    function deAuthorizeCaller(address _caller) public onlyAuthCaller returns(bool) \n    {\n        authorizedCaller[_caller] = 0;\n        emit DeAuthorizedCaller(_caller);\n        return true;\n    }\n\n \n   modifier onlyAuthCaller(){\n\n        require(authorizedCaller[tx.origin] == 1);\n        _;\n    }\n    modifier onlyOwner(){\n        require(tx.origin == owner);\n        _;\n    }\n\n    modifier onlyDrugOwner(address _SerialNumber){\n        require(BatchDrugDetails[_SerialNumber].CurrentproductOwner == tx.origin);\n        _;\n    }\n\n    modifier onlyDrugReceiver(address _SerialNumber){\n            require(BatchDrugDetails[_SerialNumber].nextOwner == tx.origin);\n            _;\n    }\n   \n\n /* Get Next Action  */    \n    function getnextOwner(address _SerialNumber) public onlyAuthCaller view returns(string memory)\n    {\n        return nextOwner[_SerialNumber];\n    }\n\nfunction isBad(address _SerialNumber,uint32 Temparature) internal returns(bool){\n    require(!BatchDrugDetails[_SerialNumber].isBad);\n  DrugDetails = BatchDrugDetails[_SerialNumber];\n  DrugDetails.CurrentTemperature = Temparature;\n     \n\n    if(Temparature > DrugDetails.IdealTemperature){\n        DrugDetails.isBad = true;\n        DrugDetails.status = \"Exceeded ideal temperature\";\n           BatchDrugDetails[_SerialNumber]=DrugDetails;\n\n        return false;\n    }\n    else if(DrugDetails.expTimeStamp <=block.timestamp){\n         DrugDetails.isBad = true;\n        DrugDetails.status = \"Drug Expired\";\n           BatchDrugDetails[_SerialNumber]=DrugDetails;\n        return false;\n    }\n\n    BatchDrugDetails[_SerialNumber]=DrugDetails;\n        return true;\n\n    }\n\n}\n\n\n\n\n//1646246054",
  "sourcePath": "/Users/tejasatyanarayanathotakura/Desktop/Worked Projects/truffleProject/contracts/StorageSupplyChain.sol",
  "compiler": {
    "name": "solc",
    "version": "0.6.2+commit.bacdbe57.Emscripten.clang"
  },
  "schemaVersion": "3.4.3",
  "updatedAt": "2022-03-14T18:27:00.504Z",
  "devdoc": {
    "methods": {}
  },
  "userdoc": {
    "methods": {}
  }
}